:020000040000FA
:0600000002011D021E1B9F
:03002B0002255E4D
:0300330002254063
:03005300021E8EFC
:03006B0002251754
:10008300021CCFE5C754F84401F5C77901220000EB
:100093000080FB120086B90003020107E47921788E
:1000A30008B800028004F709D8FCE479297802B87B
:1000B30000028004F709D8FCE490028178B579073F
:1000C3008002F0A3D8FCD9FA781A90014D7A01BACC
:1000D30000028007E493A3F608DAF9900935AA82AF
:1000E300AB8390014E78FF79038015E493A3AC8230
:1000F300AD838A828B83F0A3AA82AB838C828D83A8
:10010300D8E9D9E77582B07583A4740312012F75FA
:100113008291758300740012012F75D00075813FA1
:10012300751881751902759F00020096C09FF59F8F
:10013300E473D09F22D083D082C09FE493C0E07445
:100143000193C0E0740293F59F2201FF0000B40005
:100153000028002800283075A000A000A000A000FF
:1001630000080008E001F00010001000100010006B
:100173001000100050005000500010001000D00775
:100183000000000000000F000100050030750700AB
:100193001000010081FF0000FF4A0668065006FFB9
:1001A30002020208025000A0000000E80302E584F6
:1001B300010000C78402E1840100008A0902DD8492
:1001C300010000B20202E1840100008B0902DB841A
:1001D300010000C80202E1840100008C0902D984F5
:1001E300010000CA0202E1840100008D0902D784E4
:1001F300080000CB0202E1840100008E0902D584CD
:100203000100008F09FF0100FF2002E584010000C7
:10021300CD8402E184010000F30902D384000000CD
:100223000000020D8503000018032C0C2C0C2C0C71
:100233002C0C2C0C2C0C2C0C2C0C2C0C2C0C2C0CFB
:100243002C0C2C0CBA0ED20EB40EFFFF02020202CB
:100253000202020202010D000000100102E5840106
:100263000000D08402E184010000360A02FD84010B
:100273000000780702E184010000370A02FB8401D1
:1002830000007B8302E184010000380A02F7840145
:100293000000528302E184010000390A02F584015F
:1002A3000000DF8202E1840100003A0A02F38401C4
:1002B3000000A98202E1840100003B0A02F18401EB
:1002C3000000CD8202E1840100003C0A02EF8401B8
:1002D3000000BB8202E1840100003D0A02ED8401BB
:1002E3000000608302E1840100003E0A02EB840106
:1002F30000003F0A01E803053F10FF0001307503CA
:1003030002010600000000000000000000000000E1
:10031300000000000000000000000000000000FFDB
:10032300FF0600800CE803140953696D706C654285
:100333004C455065726970686572616C05125000B6
:100343002003020A000201060302F0FF53696D70E5
:100353006C6520424C452050657269706865726116
:100363006C281300002E130A43686172616374657D
:100373007269737469632031000243686172616357
:10038300746572697374696320320008436861722B
:100393006163746572697374696320330010436821
:1003A30061726163746572697374696320340002F6
:1003B300436861726163746572697374696320353C
:1003C3000002E584010000CA8402E18401000051B7
:1003D3000B020585030000260902DF840100005299
:1003E3000B02E184010000630B0207850100002773
:1003F3000902DF84010000640B02E184010000753F
:100403000B020985020000280902DF84010000763F
:100413000B02E184010000870B020B850000002919
:1004230009020D850300002A0902DF840100008808
:100433000B02E184010000990B02018504000030E6
:100443000902DF840100009A0B120138019903129B
:10045300013818990312013847990312013880991A
:1004630003120138A89903120138D69903120138EF
:10047300ED9903120138049A031201381A9A0312F0
:100483000138419A03120138549A031201386A9AC7
:10049300031201387D9A03120138A29A031201381C
:1004A3007EA4021201387DA502120138B2A5021200
:1004B3000138D3A502120138E3A50212013804A6BC
:1004C3000212013810A702120138DDA70212013807
:1004D30050A802120138D6A80212013819A9021233
:1004E300013850A902120138D6A902120138A8AA6C
:1004F3000212013806AB021201381EAB0212013898
:1005030098AB021201389BAB021201389EAB021268
:10051300013845AC021201385DAC021201388DACD2
:1005230002120138ADAC021201389BAD0212013840
:1005330051AE02120138B9E402120138E1E40212A9
:1005430001380FE50212013846E502120138AEE523
:1005530002120138F7E50212013842E602120138AD
:1005630080E602120138BDE602120138EBE6021200
:10057300013892E7021201389CE702120138A9E719
:1005830002120138DCE7021201389EE80212013838
:10059300AAE802120138C2E802120138CCE80212BA
:1005A3000138B6A103120138C4A103120138DCA13A
:1005B30003120138F4A103120138A2AC011201386D
:1005C30040AD01120138B8AD01120138CDAE0112B0
:1005D300013807AF01120138B0AF0112013885B0FD
:1005E30001120138E9B10112013840B20112013898
:1005F300C7B201120138AEB301120138FBB30112C5
:10060300013889B401120138ADB40112013882B640
:1006130001120138C3B601120138E5B601120138DF
:1006230066B70112013850B80112013816B9011228
:100633000138B3CE0212013885CF021201382ED011
:100643000212013871D002120138FED002120138B1
:100653008AD1021201386BD2021201389AD20212E5
:10066300013896D302120138DED302120138E0D4E6
:100673000212013824D5021201384AD50212013878
:100683006E7F0012013800800312013816800312B6
:1006930001383C80031201386481031201386E81F2
:1006A30003120138C78203120138C78303120138CA
:1006B300E9DA021201381EDC0212013851DC02129F
:1006C30001389BDC0212013859DE02120138BB6D7E
:1006D300001201381E6E00120138636F00120138D8
:1006E300736F00120138966F00120138E16F001228
:1006F30001388670001201387C710012013846728D
:1007030000120138BE730012013800740012013860
:100713009E7400120138EB74001201381175001237
:100723000138FF7600120138047700120138E578AA
:10073300001201383979001201389B79001201380F
:10074300C37900120138677A00120138297B00123D
:1007530001385A7B001201385D7B00120138A57BFA
:1007630000120138E77B001201384E7C0012013879
:10077300187D001201382B7D00120138447D0012D0
:1007830001388F7D001201386A7E00120138F97E2C
:1007930000120138447F0012013884250012013809
:1007A300902500120138C925001201380E260012C7
:1007B3000138C526001201384B2700120138B02733
:1007C30000120138DC270012013815280012013805
:1007D300292A00120138052C00120138F02D0012CD
:1007E3000138272F00120138873100120138733284
:1007F30000120138B93300120138C634001201382F
:10080300E334001201381B3500120138353500126C
:1008130001389D3500120138373A00120138D83AB1
:1008230000120138293B00120138503B00120138F5
:100833009E3B00120138BC3B00120138103C0012F1
:100843000138E93C00120138703E00120138F83ECD
:10085300001201380FE00212013819E002120138C8
:10086300E4E002120138FFE00212013825E102122E
:10087300013869E102120138A1E102120138CAE12B
:100883000212013843E20212013858E2021201381F
:100893006DE202120138A4E202120138B8E2021238
:1008A3000138E9E20212013823E3021201384FE36F
:1008B30002120138A5E302120138F9E302120138EA
:1008C30042E4021201386CE40212013891E402128C
:1008D300013896F60212013860F70212013843F824
:1008E30002120138B9F802120138FBF8021201387A
:1008F30028FA0212013858F30112013881F3011268
:1009030001389AF301120138DFF401120138BDF501
:1009130001120138DCF50112013869F601120138C0
:10092300ACF601120138F9F70112013898F80112F7
:10093300013817FB01120138AEFB0112013882FCAA
:100943000112013864FD01120138D0FE0112013891
:1009530063FF01120138CB9D03120138349E031249
:100963000138889E03120138AF9E03120138F5ED5A
:100973000212013862EE02120138ADEE02120138A2
:10098300A2EF021201389EF00212013888F102121E
:100993000138BCAE02120138FEAE02120138D8AFE4
:1009A30002120138B1B002120138ACB1021201389F
:1009B3008BB202120138F7B202120138BEB302122F
:1009C300013829B40212013890B402120138BBB4C1
:1009D300021201382CB502120138BFB502120138D8
:1009E30028B6021201383DB60212013885B602124A
:1009F30001389EB60212013803B70212013806B756
:100A030002120138F88A03120138208B03120138CD
:100A13005E8B031201381C8C03120138878C03127E
:100A23000138A38C03120138CB8C03120138FB8CE1
:100A3300031201380A8D03120138848D0312013821
:100A4300AA8D03120138C9C901120138A6CB0112BC
:100A53000138A1CD0112013874CE01120138BFCE85
:100A6300011201380ACF011201381CCF01120138DB
:100A73005CCF0112013891CF01120138DDCF011291
:100A830001380CD0011201382FD0011201387CD06B
:100A93000112013805D10112013812D301120138B4
:100AA300FDD40112013840D501120138A5D6011237
:100AB3000138E6D60112013859D701120138A5D7FA
:100AC30001120138D0D701120138EF8C021201381C
:100AD3001A8D02120138019402120138259602126E
:100AE3000138E097021201383D99021201385F3F45
:100AF30000120138F63F001201382340001201387A
:100B0300694000120138A841001201383F43001226
:100B13000138B94300120138D44300120138494463
:100B230000120138784500120138D346001201380B
:100B3300D547001201383249001201384B490012DF
:100B43000138A849001201388A4A00120138BD4A07
:100B5300001201382D4B00120138A74B0012013847
:100B6300F64B00120138C24C00120138C74D001277
:100B73000138A64E00120138314F001201389F4F41
:100B8300001201381350001201383C500012013892
:100B9300FB500012013875520012013892520012B4
:100BA3000138B15200120138425300120138675321
:100BB300001201388F53001201380A540012013811
:100BC300645400120138B8550012013875560012EA
:100BD3000138485700120138FAD7011201384AD8B0
:100BE3000112013856D80112013833D901120138E4
:100BF30063D9011201389BD9011201381ADA0112A3
:100C0300013852DA01120138A4DA01120138E1DAAB
:100C13000112013806DD0112013832DF01120138F9
:100C23002DE10112013808E301120138F8FF011226
:100C33000138F198011201383B99011201381A9FCA
:100C4300011201389BA001120138FAA601120138E2
:100C5300F5A70112013832A80112013855A8011273
:100C6300013897A801120138A0A801120138AAA8D7
:100C73000112013896A9011201388AAA011201381A
:100C8300765700120138EE6100120138F461001248
:100C93000138006900120138D183031201386784D7
:100CA300031201387D8403120138F78403120138DB
:100CB3004D85031201388B8503120138E885031231
:100CC30001386586031201386E86031201387A866D
:100CD300031201388D8603120138C98603120138C5
:100CE300DF86031201383E87031201384AF20212EB
:100CF300013857F20212013871F202120138B0F2D0
:100D030002120138EEF20212013853F302120138D3
:100D130068F30212013873F30212013880F30212EE
:100D2300013897F302120138A5F302120138B0F328
:100D330002120138BCF302120138CBF3021201385C
:100D4300D6F302120138F9F302120138A2F40212A7
:100D53000138B2F402120138CCF402120138E9F47A
:100D63000212013805F5021201382AF50212013880
:100D730034F50212013848F50212013867F5021200
:100D83000138C8F502120138CEF502120138D4F544
:100D930002120138DAF502120138E6F502120138BF
:100DA30019F602120138CEE50112013850E601129C
:100DB3000138F9E60112013841E8011201384FEA1E
:100DC3000112013835EB011201386AEB01120138C7
:100DD3008CEB0112013835EC0112013805EE0112DA
:100DE30001382EEE01120138A6EE01120138D8EEB9
:100DF30001120138E5EE0112013830EF011201381A
:100E030054EF01120138A5F101120138AFF20112BA
:100E130001380BF3011201384BBB011201385CBCE2
:100E23000112013840BD011201384ABD01120138D7
:100E33006CBD0112013878BD011201381CBF0112CB
:100E4300013849BF011201385FC001120138B4C033
:100E53000112013803C201120138D8C2011201384C
:100E630034C3011201389FC301120138D4C30112E4
:100E7300013817C401120138E1C601120138F9C65D
:100E8300011201388AC70112013898C701120138CB
:100E9300E5C701120138F3C7011201385FC8011217
:100EA3000138DAC80112013831C9011201386099D9
:100EB30002120138829902120138939B02120138FF
:100EC300529E021201387C9F021201383AA002128C
:100ED300013826A1021201384897031201386D9791
:100EE30003120138E3970312013896C7021201383F
:100EF3009FC702120138A8C70212013880C8021224
:100F0300013831CA0212013861CA021201388CCA8F
:100F130002120138BCCA02120138E7CA02120138B0
:100F23001BCB0212013847CB021201388ACB0212C3
:100F33000138B5CB02120138FCCB0212013851CC77
:100F43000212013893CC02120138EDCC021201389F
:100F530018CD0212013867CD0212013897CD021263
:100F63000138C2CD02120138F0CD0212013813CE7E
:100F730002120138D4A30312013800A4031201386A
:100F83002DA40312013837A40312013847A4031216
:100F930001382AB70212013834B70212013875B783
:100FA30002120138BEB702120138F8B70212013833
:100FB3004EB8021201386FB8021201381EBB02127A
:100FC300013827BB021201387BBB02120138A4BBD4
:100FD30002120138AEBB021201381CBC02120138E6
:100FE300ACBC0212013807BD0212013835BD021232
:100FF3000138BDBD02120138FCBD0212013831BEF9
:101003000212013843BE0212013862BE02120138D5
:101013006BBE0212013832BF02120138E29F031283
:1010230001385795031201388D9503120138C19584
:10103300031201380E97031201383EA3031201383D
:1010430054A3031201385EA303120138A8A30312A9
:10105300013851A40312013861E90212013874E91D
:101063000212013835EA0212013874EA0212013819
:1010730091EA02120138CAEA0212013817EB02128E
:10108300013849EB0212013880EB0212013889ED75
:1010930002120138569C03120138799C031201385D
:1010A300A89C03120138409D03120138829D03124C
:1010B3000138F28D03120138178E03120138418E65
:1010C3000312013808A503120138118501120138F2
:1010D300EF86011201388E88011201383989011215
:1010E3000138B989011201383E8A01120138678A31
:1010F30001120138428E01120138B98E01120138F2
:10110300D08F011201380A90011201384B9001125D
:101113000138929101120138E8910112013831929C
:1011230001120138A092011201380C930112013807
:101133003D93011201385593011201386E94011247
:1011430001387E94011201383496011201384B960E
:10115300011201387D96011201381F9801120138DE
:10116300B398011201388DA2031201389EA2031213
:1011730001385EA5031201389DA50312013848A664
:1011830003120138D9A003120138E9A00312013870
:10119300FEA003120138B0A103120138E09E03122E
:1011A3000138659F03120138C99F03120138B49AAD
:1011B30003120138DD9A03120138439B03120138ED
:1011C300639B03120138B49B031201380F9C031273
:1011D3000138499C031201384C9C0312013882FAEE
:1011E30002120138A7FA02120138C4FA02120138B6
:1011F300E1FA0212013806FB0212013827FB021240
:10120300013851FB021201380EFC021201388CFC2A
:1012130002120138B3FC02120138BDFC021201387C
:10122300E2FD0212013832A60312013842A603126C
:10123300013845A603120138F87F001201381D93C7
:1012430003120138AD94031201380E9503120138CD
:1012530054950312013866FE02120138B8FE0212D9
:1012630001382BFF0212013898FF02120138D69081
:1012730003120138009103120138CF910312013890
:10128300AB920312013860BF021201382CC0021264
:1012930001386DC002120138A7C00212013805C11E
:1012A3000212013859C102120138B7C102120138C2
:1012B3004DC20212013855C302120138DFC40212B3
:1012C30001387DC502120138E4C502120138F7C5A1
:1012D30002120138EBC60212013834C70212013878
:1012E300008002120138328302120138C3840212D1
:1012F30001381A8502120138378502120138B78581
:1013030002120138338702120138028802120138AF
:101313006F8B02120138598C02120138BFD50212A9
:10132300013833D802120138E1D802120138F6D954
:101333000212013868DA021201386E87031201388B
:10134300B38703120138D08703120138868803124A
:101353000138D98803120138A98903120138BF8AD9
:1013630003120138DDA503120138A7A503120138C2
:101373000AA603120138DAFF01E066701008A3E041
:1013830066700A08A3E066700408A3E06622C3E758
:10139300960809E7960809E7960809E79622C3E045
:1013A3009608A3E09608A3E09608A3E09622C00857
:1013B300C3E096F50808A3E096420808A3E0964226
:1013C3000808A3E09645087001D3D008220808084E
:1013D300EAC0E0EBC0E086F0E7A4FA180986F0E77C
:1013E300A42AFA180986F0E7A42AFA180986F0E76E
:1013F300A42AFA1986F0E7A4FBE5F02AFA1908866D
:10140300F0E7A42BFBE5F03AFA190886F0E7A42BE2
:10141300FBE5F03AFA18180986F0E7A4C5F02BFBB0
:10142300E43AFA1908E7C5F0C6A426F6E5F03BFB53
:10143300E43AFA1886F0E7A4F6E5F00826F6E43B6A
:1014430008F6E43A08F6D0E0FBD0E0FA22E4CFC095
:10145300E0E4CEC0E0E4CDC0E0E4CCC0E075F02031
:10146300C3E633F608E633F608E633F608E633F662
:10147300181818EC33FCED33FDEE33FEEF33FFC3E6
:10148300EC9709ED9709EE9709EF97191919400F92
:10149300FFEC97FC09ED97FD09EE97FE191906D5A8
:1014A300F0BEECF709EDF709EEF709EFF719191993
:1014B300D0E0FCD0E0FDD0E0FED0E0FF22601608D3
:1014C3000808C6C313C618C613C618C613C618C65B
:1014D30013C6D5E0EA227009080808226016181816
:1014E30018C6C333C608C633C608C633C608C633D0
:1014F300C6D5E0EA22E627F60809E637F60809E644
:1015030037F60809E637F622E026F608A3E036F6B2
:1015130008A3E036F608A3E036F622E026F008A397
:10152300E036F008A3E036F008A3E036F022C3E685
:1015330097F60809E697F60809E697F60809E69785
:10154300F622C3E096F008A3E096F008A3E096F035
:1015530008A3E096F022E056F608A3E056F608A3A7
:10156300E056F608A3E056F622E056F008A3E0564C
:10157300F008A3E056F008A3E056F022E0F608A333
:10158300E0F608A3E0F608A3E0F622E6F008A3E6F7
:10159300F008A3E6F008A3E6F022E0FAA3E0FBA339
:1015A300E0FCA3E0FD22EAF0A3EBF0A3ECF0A3ED53
:1015B300F022CAC0E0E6F0A308DAFAD0E0FA22CAC1
:1015C300C0E0E0A3C582CCC582C583CDC583F0A3AB
:1015D300C582CCC582C583CDC583DAE6D0E0CA22F5
:1015E300C3E498F8E499F91216248026C3E49AFA1E
:1015F300E49BFBE920E7E9121624E498F8E499F95F
:1016030022C3E498F8E499F9121624E498F8E499CB
:10161300F9C3E49AFAE49BFB22EB20E7CFE920E746
:10162300E0B90010BB0008E88AF084F8AAF022E4CD
:10163300FBC8FA22EB70227B10C833C8C933C93305
:101643005007C39AC3DBF280069A50012ADBEAC82B
:1016530033F4C8C933F4C9FA2275F008E4C833C8AF
:10166300C933C933C99AC99B5004C92AC93BD5F0A8
:10167300ECFBC833F4C8E4C9FA22600D08C6A2E73C
:1016830013C618C613C6D5E0F322600C08C6C313ED
:10169300C618C613C6D5E0F422700422600D18C61E
:1016A300C333C608C633C6D5E0F41822251810AFD5
:1016B30008F518400215198008F51840021519D2CB
:1016C300AF22C0D0251810AF08F5185002051980B5
:1016D30008F51850020519D2AFD0D0222518F5828B
:1016E30010AF08F518400215198008F518400215C7
:1016F30019D2AF851983222518F582E43519F583AC
:1017030022E4732518C582C0E0E51934FFC583C000
:10171300E0E518C3958224F810AF08858319858204
:10172300188008858319858218D2AFCEF0A3E520EF
:10173300F0A37808E608F0A3DEFAEFF0A3E581242E
:10174300FAF8E608F0A3E608F0A3E608F0A3080811
:10175300E608F0A3E608F0A315811581D0E0FED0DA
:10176300E0F8158115811581E8C0E0EEC0E022257F
:1017730018C582C0E0E51934FFC583C0E0E518C38E
:10178300958224F910AF088583198582188008850E
:101793008319858218D2AFCEF0A3E520F0A3780891
:1017A300E608F0A3DEFAEFF0A3E58124FBF8E608F0
:1017B300F0A3E608F0A30808E608F0A3E608F0A300
:1017C30015811581D0E0FED0E0F815811581E8C0C0
:1017D300E0EEC0E022851983851882E0A3FEE0A332
:1017E300F5207808E0A3F608DFFAE0A3FFE0A3C042
:1017F300E0E0A3C0E0E0A3C0E0E0A3C0E0E0A3C05A
:10180300E010AF08858218858319800885821885C2
:101813008319D2AFD083D08202013585198385180D
:1018230082E0A3FEE0A3F5207808E0A3F608DFFA40
:10183300E0A3FFE0A3C0E0E0A3C0E0E0A3C0E0E0DA
:10184300A3C0E010AF0885821885831980088582BC
:1018530018858319D2AFD083D08222C0D02518C572
:1018630082C0E0E51934FFC583C0E0E518C3958263
:1018730024F310AF0885831985821880088583199E
:10188300858218D2AFC8F0A3E9F0A3EAF0A3EBF086
:10189300A37908E709F0A3D8FAECF0A3EDF0A3EEDF
:1018A300F0A3EFF0A3D0E0F0A3D0E0F0A3D0E0F0FA
:1018B300A3E520F0A3E5F0F0A32285198385188220
:1018C300E0C0E0A3E0F9A3E0FAA3E0FBA37808E01B
:1018D300F608A3DFFAE0FCA3E0FDA3E0FEA3E0FF2C
:1018E300A3E0C0E0A3E0C0E0A3E0F5D0A3E0F520CF
:1018F300A3E0A3F5F010AF0885831985821880084B
:10190300858319858218D2AFD082D083D0E0F8D0F6
:10191300E03274048006740280027401C0E0F404AF
:101923001216DFD0E01215B522740480047402800D
:1019330000CCC0E0EDC0E0E518C39CCCAD1950016C
:101943001D10AF068C188D1980068C188D19D2AF17
:101953001215C2D0E0FDD0E0FC22D083D082E9C0D2
:10196300E0E493A3C386F0C5F095F0F908E493A3EC
:1019730086F0C5F095F0700BE493A3C3994005E995
:10198300048002A3E475F002A42582F582E5F03514
:1019930083F583D0E0F9E493A3C0E0E493C0E022AD
:1019A300D083D082ECC0E0EDC0E0E493A3FCE493E9
:1019B300A3FDED4C600D1219EFEC24FFFCED34FF99
:1019C300FD80EFE493A3FCE493A3FDED4C600D12C3
:1019D3001A2EEC24FFFCED34FFFD80EFD0E0FDD0A8
:1019E300E0FCE493A3C0E0E493C0E022C0E0C3E4DE
:1019F3009396087401939618400FE4936670080851
:101A0300740193661870007019A3A3C3E493960836
:101A13007401939618A3A3400DD0E0D0E0D0E00268
:101A230019DFA3A3A3A3A3A3D0E022C0E0C0F0883F
:101A3300F0E4936670080874019366187000A8F0C8
:101A4300A3A3700BD0F0D0E0D0E0D0E00219DFA365
:061A5300A3D0F0D0E02258
:101A5C0074F5121772EAFEEBFFEE2434F8EF340043
:101A6C00F988088909EE2435F582EF3400F583E016
:101A7C00F8EE2437F582EF3400F583E0F50AEC85B7
:101A8C000AF0A4FCAAF0850AF0EDA42AFDE82CF8D3
:101A9C00E43DF97A257B00121624EA850882850933
:101AAC0083F05407F87401B800028004C333D8FCE7
:101ABC00C0E0E0131313541FF8EE28F8EF3400F9CC
:101ACC00E8245DF582E93400F583D0E0F8E0586055
:101ADC0008EE2434F582EF801EEE2436F582EF34C6
:101AEC0000F583E0F5F0EA84A8F0EE28F8EF340076
:101AFC00F9E82438F582E93400F583E0F97F040233
:101B0C00181E74F5121772EAFEEBFFEE2434F58200
:101B1C00EF3400F583E0C0E0EE2435F582EF3400BD
:101B2C00F583D0E0F08E828F83A3A3A3A3A3A3A3FA
:101B3C00C082C0838E828F83A3A3A3A3A3E0F8A348
:101B4C00E0F9D083D082E0C398F508A3E099F509B9
:101B5C00EE2480F582EF3400F583E064017069EEC9
:101B6C002481F582EF3400F583E0F8A3E0F98E824E
:101B7C008F83A3A3A3A3A3A3A3E0FCA3E0FD8E8266
:101B8C008F83A3A3A3A3A3E0FAA3E0FBC3EA9CEB7C
:101B9C009D5027C3EC98ED99402EC3EA98EB9950D1
:101BAC00277CFD7D04EEFAEFFB120B8AEE2480F508
:101BBC0082EF3400F583E4F0800EC3EA98EB994091
:101BCC00E0C3EC98ED9950D9EE2434F8EF3400F9D9
:101BDC00E8FCE9FDEE2435F582EF3400F583E0F8FE
:101BEC00EE2437F582EF3400F583E0F50AE508853D
:101BFC000AF0A4F508AAF0850AF0E509A42AF5096B
:101C0C00E82508F8E43509F97A257B00121624EA50
:101C1C008C828D83F05407F87401B800028004C3E1
:101C2C0033D8FCC0E0E0131313541FF8EE28F8EF80
:101C3C003400F9E8245DF582E93400F583D0E0F84E
:101C4C00E0586008EE2434F582EF801EEE2436F561
:101C5C0082EF3400F583E0F5F0EA84A8F0EE28F882
:101C6C00EF3400F9E82438F582E93400F583E0F923
:101C7C00122509021B09C082C0838518828519832D
:101C8C00E0F8A3E0F9C3EA9CEB9D5012C3EC98ED8D
:101C9C00994019C3EA98EB99501279018010C3EA64
:101CAC0098EB9940F5C3EC98ED9950EE7900D08300
:101CBC00D08222EAC39CFAEB9DFB2200852187850A
:101CCC0022C622C0E0C0D0E8C0E0E9C0E0EAC0E033
:101CDC00EBC0E0ECC0E0EDC0E0C008C009C00AC039
:101CEC000BC082C083C0F0759B00906182E0A2E6BD
:101CFC004003021DADE591A2E64003021DAD7591B6
:101D0C00BF9003C2E064057008120CC2120CCE80A6
:101D1C0003120CC8752100120D28E99003C3F07949
:101D2C0000120D1C120B007A017B009003C1E0F92C
:101D3C00120FF2907803E064426003021DF69005E6
:101D4C005FE014F06003021DF6C2AF121D5A00785A
:101D5C002AD0E0F618D0E0F6E59F5407F97005900C
:101D6C0084878003908483780812157FE9C4C0E0CF
:101D7C007829E65508F50808E65509F509740B7835
:101D8C000812168DD0E02508F8906270E0A2E740AA
:101D9C00F8E8C333906272F0906270E0D2E0F080A9
:101DAC0049E0A2E55024E591A2E5501E7591DF9023
:101DBC0003C2E0640D70139003E4E004F064287037
:101DCC0002E4F07A00E0F9120D9A906181E0A2E34E
:101DDC005009E5E9A2E3500375E9F7A3E0A2E75047
:101DEC0009E591A2E7500375917FD0F0D083D082A2
:101DFC00D00BD00AD009D008D0E0FDD0E0FCD0E068
:101E0C00FBD0E0FAD0E0F9D0E0F8D0D0D0E032C08E
:101E1C00E0C0D0C082C083906183E0A2E05009E5AD
:101E2C00BFA2E0500375BFFEE0A2E15009E5BFA2DE
:101E3C00E1500375BFFDE0A2E25009E5BFA2E250FC
:101E4C000375BFFBE0A2E35009E5BFA2E3500375A5
:101E5C00BFF7E0A2E45009E5BFA2E4500375BFEF61
:101E6C00E0A2E55009E5BFA2E5500375BFDFE0A293
:101E7C00E65009E5BFA2E6500375BFBFD083D08200
:101E8C008088C0E0C0D0E8C0E0E9C0E0EAC0E0EB88
:101E9C00C0E0ECC0E0EDC0E0C0F0E5A7A2E6500F5A
:101EAC00E5A1A2E6500953A7BF75A1BF121EF3E529
:101EBC00A7A2E5500CE5A1A2E5500653A7DF75A13A
:101ECC00DFE5A7A2E15009E5A1A2E1500375A1FD50
:101EDC00E5A7A2E2500CE5A1A2E2500653A7FB75C0
:101EEC00A1FBD0F0021E0474F81217727521019038
:101EFC0003C2E064067015120C568A828B83A3A36E
:101F0C00A3A3A3A3E0FAA3E0FB120CB0A2AFE433AB
:101F1C00FED2AF9003C8E0640170187A207B009069
:101F2C0003C1E0F912107C7A207B009003C1E0F928
:101F3C00120FF8906182E0D2E6F090055EE060212D
:101F4C0085C62280169003C7E064017008E5C6546C
:101F5C00F84405F5C653BEFC121CC874016521601B
:101F6C00E4EEA2E092AF7F0102181E008E238F24B4
:101F7C00858228858327851882851983E0CEA3E086
:101F8C00CF852882852783EBC9EAC8EDCBECCA75CF
:101F9C00F010C3E833C8E933C9EA33CAEB33CBC317
:101FAC00EA9EF526EB9FF525B35004AB25AA26EC4B
:101FBC0033CCED33CDD5F0DAAE23AF242274EB1253
:101FCC00177274FA1216AF8A088B098C148D15903F
:101FDC0003C2E024F7C39405500690844B02212BD6
:101FEC00120C568A0A8B0BAE0AAF0BEE4F70030223
:101FFC002128AC08AD09851882851983AA82AB8388
:10200C00120CE08E828F83A3A3780812157F908424
:10201C006B7808121559851882851983780C12155E
:10202C007F90846B780C1215597808790C121391E7
:10203C00501F7808790C12153190842778081213E8
:10204C00B14047850810850911850A12850B13804C
:10205C0041850C10850D11850E12850F13781079A2
:10206C000812153190842778101213B1501C75107A
:10207C00007511007512007513017810790C12158A
:10208C0031781079081214F8800890844B7810126B
:10209C00157F740978101214D990842B78081215B6
:1020AC007F781079081214508E828F83A3A3A3A378
:1020BC00A3A3E0F8A3E0F97AD07B031216248808D6
:1020CC008909E4F50AF50B781079081214F87404F0
:1020DC001216FAE0F8A3E0F97AD07B03121624E882
:1020EC00FA8A08E4F50978107908121391500778E8
:1020FC001079081215319003C2E06408600AE0649C
:10210C00066005E06405701C90842378101213B1EE
:10211C00501290841F781012150B800890843F7811
:10212C001012157F851482851583781012158E7404
:10213C00061216C57F0E02181E74F7121772120CB7
:10214C00F290055CE064017010906245E4F0A3F03D
:10215C0053F4F343FE0C5390F3120C9EE5C65480DB
:10216C004449F5C6E59E547F644970F890618574C6
:10217C000FF090055AE0F47002A3E0604E90055BFE
:10218C00E0600814601B14602E804075080175090E
:10219C000090055AE0780812169CE508F4528080ED
:1021AC002A75080175090090055AE0780812169CEA
:1021BC00E508F45290801475080175090090055AD1
:1021CC00E0780812169CE508F452A079007F020210
:1021DC00181E74F7121772E9FEEAFF74016E700C88
:1021EC007A807B009003C1E0F9120FF290257CE419
:1021FC0093F46008E493F9120AF4800953C680E55D
:10220C009E547F70FA120CA490055CE0640170037C
:10221C00120B0C90055AE0F47002A3E0604B900591
:10222C005BE0600814601A14602C803D7508017521
:10223C00090090055AE0780812169CE50842808047
:10224C002875080175090090055AE0780812169C4B
:10225C00E5084290801375080175090090055AE055
:10226C00780812169CE50842A0120CF2120C568A41
:10227C00088B09A808A909E8496015E5E170FCE894
:10228C002414F582E93400F583E0F46003E0F5E111
:10229C0074016F700A7A019003C1E0F912104602C2
:1022AC0021D974F11217728A088B098C0A8D0B7460
:1022BC000F1216FA780C12157F90846B7808121591
:1022CC005990846B780C1215597808790C1213916B
:1022DC0050157808790C1215319084277808121350
:1022EC00B1401579018013780C790812153190845E
:1022FC0027780C1213B140EB79007F0802181E747A
:10230C00ED1217728A088B098C0A8D0B7413121636
:10231C00FA780C12157F90846B78081215599084FA
:10232C006B780C121559780C7908121391401178AE
:10233C0008790C121531AA08AB09AC0AAD0B802236
:10234C007510007511007512007513017810790C59
:10235C00121531781079081214F8AA10AB11AC12BE
:10236C00AD137F0C02181E90846B780812157F8AAF
:10237C00828B83780812156C7F0402181E74F51278
:10238C0017728C828D83780812157F8A828B8378E2
:10239C0008121545EA2404F8EB3400F98C828D837D
:1023AC00A3A3A3A3E0FCA3E0FD88828983C3E09CE4
:1023BC00F0A3E09DF088828983C3E09420A3E0948D
:1023CC004E402290849B780812157F8A828B8378EA
:1023DC000812151E8A828B83A3A3A3A3E02420F0EA
:1023EC00A3E0344EF0808074F5121772E9FE90056C
:1023FC0014E0FAA3E0FBEEC333F8E433F9741328CA
:10240C00F582748339F583E02AF508A3E03BF509DE
:10241C00780812191990849712159D121F7874025E
:10242C001216C58A088B098C0A8D0B741078081249
:10243C0014C0AA08AB097F0402181E74F11217729B
:10244C008A0C8B0D8C0E8D0F740F1216FAE0FAA3FA
:10245C00E0FB74111216FAE0F508A3E0F509741309
:10246C001216FAE0FEA3E0FF7808121919EA24010B
:10247C00F508EB3400F509E4F50AF50B780C79084E
:10248C001213D090849F780812157F780C7908125B
:10249C0013D0AA0CAB0DAC0EAD0F121F7874021238
:1024AC0016C58B09EA450960047A0180027A00ECB2
:1024BC002AFCED3400FDECF8EDF97A717B02121672
:1024CC002488088909E4F50AF50B8E828F83780835
:1024DC0012158EECF8EDF97A717B021216248A082B
:1024EC008B097405780812169C8E828F83A3A3A384
:1024FC00A3E508F0A3E509F07F0802181EC082C00E
:10250C0083E9906000F0D083D08222C0E074F21294
:10251C00185EA2AFE433FED2AFE589A2E1500312FC
:10252C0011CC758900C2C5751A00EEA2E092AF7F7E
:10253C00010218BDC0E074F212185EA2AFE433FEC3
:10254C00D2AFE58BA2E050031211CC758B00C2E820
:10255C0080D5C0E0C0D0E8C0E0E5A8D2AFC2C77556
:0E256C001A00A2E792AFD0E0F8D0D0D0E03253
:10257C00FFFFFFFFFFFFFFFFC082C083E99009F25E
:10258C00F002280874F7121706E99002E0F07C18A4
:10259C007D037AFF7BFF12082A9002E174FFF0A3FF
:1025AC00F0A3E4F0A3F079051207B29002E0E0F991
:1025BC001206DA7A487B08120A0A02351674F412EB
:1025CC0017068A088B09EB548060309002E0E0F922
:1025DC00120FDA8A0A8B0BAE0AAF0BEE4F60138E1A
:1025EC00828F83E064B070031207CAEEFAEFFB121D
:1025FC000FC8AA08E5096480FB80047A007B0002FE
:10260C0027D774F212170674FC1216AFEAFEEBFF12
:10261C0074121216FA1239FDEE4F70030226B174C1
:10262C00021216FAEEF0A3EF122A12ECF0A3ED123E
:10263C002A12AA82AB831206D4E9F50A706AE5085D
:10264C00450960648E828F831239E3EE4F60567AAF
:10265C00067B0012102E8A0C8B0DA80CA90DE849D4
:10266C007005750A13804188828983E41226BEEEB8
:10267C00F0A3EF123A0EE508F0A3E509F09002E69C
:10268C001227459002E670051234C0801B1234AE3E
:10269C008003EAFCEBFD8C828D8312274570F38C52
:1026AC00828D8380E3750A02A90A74041216C5028E
:1026BC003BFDF0A31239B4A32274F2121706890A57
:1026CC00E975F017A4FEAFF09002E5E4F09002E398
:1026DC00122745600A1210349002E3E4F0A3F0EEE6
:1026EC00FAEFFB12102E8A088B09EA4509602FEECF
:1026FC00FCEFFD7900120FB09002E3E508F0A3E5C2
:10270C0009F07B00800812272FE4F0A3F00BEBC339
:10271C00950A40F2E50A9002E5F0790080027913FF
:10272C00023BFDEB75F017A4F8A9F09002E3E0284A
:10273C00FAA3E0398A82F58322123152EA4B2274D1
:10274C00F4121706740C1216FA1239D8FEE9FF753A
:10275C000800750900800CE5082401F508E509342A
:10276C0000F509C3E5089CE5099D503285080A85EA
:10277C00090B7403780A12169CEA250AF8EB350B40
:10278C00F988828983A3A3A3A3A3A3123595EE652D
:10279C000A7003EF650B70BFE8FAE9FB80047A005E
:1027AC007B00802774F41217067900EAA2E0501B14
:1027BC007508FE75098378081219197C047D007A56
:1027CC00F47B091207AC74021216C57F040217D8E9
:1027DC00C082C0839002E612280F601C8882898315
:1027EC00A3A3E06A7003A3E06B8882898370E8A3DB
:1027FC00A3A3A312314E80047A007B00D083D08235
:10280C00020135123CE3E8492274EE12170674FCFF
:10281C001216AFEAFEEBFF851882851983E4F0A34C
:10282C00F0EE24021234A0EE24051239BBEE24047F
:10283C00F50EEF122DC7E024FE603924FC6046240F
:10284C00FE605224FE605E24FE700302292824FEE2
:10285C00700302298C24FE700302299B24FE700352
:10286C000229AA24FC70030229B924FE7003022950
:10287C00C8022A059002FF7417F0A3E4122A1A1258
:10288C000452022A05851882851983AC82AD831205
:10289C0007D00229D5851882851983AC82AD8312A5
:1028AC0007D60229D5850C08850D0974021216FA73
:1028BC00AC82AD8385088285098312314E1206F8ED
:1028CC008A0C8B0DAC0CAD0DEC4D603BE4F50CF5AE
:1028DC000D780C121919750CFF750D02780C121964
:1028EC0019750C00750D03780C1219197408121651
:1028FC00FA121930123E5F1216C5E9F50C700B1264
:10290C00314412046A800F750C0185088285098395
:10291C00122A081234C0850C080229D87402121627
:10292C00FAAC82AD83850C82850D83122F19603C25
:10293C00850C82850D83A3A31219307510FF7511B8
:10294C0002781012191975100075110378101219EC
:10295C001974081216FA121930123E5F1216C5E9D4
:10296C00F509700B123144120470800F7509018542
:10297C000C82850D83122A081234C0850908804CFC
:10298C00851882851983AC82AD831207DC803A8569
:10299C001882851983AC82AD831207E2802B8518CF
:1029AC0082851983AC82AD831207E8801C8518825E
:1029BC00851983AC82AD831207EE800D8518828554
:1029CC001983AC82AD831207F4E9F508E508602998
:1029DC008E828F83A3E06414601F850E82850F8323
:1029EC00E09002FF122A12123CDF9003001234C056
:1029FC00E508A3122A1A12044C0233AF123CE385E9
:102A0C00188285198322F085188285198322F07C1F
:102A1C00FF7D02850A82850B831231522274EE12DD
:102A2C00170674FC1216AF8A0A8B0B8C0E8D0FEAEC
:102A3C002405F508EB3400F5097C157D0079007A46
:102A4C00FF7B02120FB0E5082402F50CE5091239E0
:102A5C00BE851882851983858210858311781012A2
:102A6C001919850882850983A3A3A3A3122F101219
:102A7C001919E5082405F510E5093400F51178104D
:102A8C00121919850C82850D831232651206F274A7
:102A9C00061216C58A108B11AE10AF11E50A24026E
:102AAC00F50AE50B1234A3EE4F7003022BE78017E7
:102ABC0074021216FA12314E88828983EAF0A3EB63
:102ACC00F09002FFE004F09002FFE0C39405400395
:102ADC00022BE7E4F510F51178101219197510E8AE
:102AEC0075110278101219197510E9751102781008
:102AFC0012191974061216FA1219307910EEFCEF2D
:102B0C00FD123E611216C5E9705E85088285098347
:102B1C00A3A3A3A3A3A3A3E0F89002E8E0687048E2
:102B2C00122F101219197CE97D02E5082408FAE528
:102B3C00093400FB120FAA74021216C5E960298E23
:102B4C00828F83A3A3A3A312314E9002FFE0F51052
:102B5C007402781012169C74002510F582740335DB
:102B6C0011F583EAF0A3EBF074021216FA858210C9
:102B7C00858311781012191974021216FA12193071
:102B8C00850C82850D831231741216C58A108B1137
:102B9C00AE10AF119002FFE0F510751100740278C1
:102BAC001012169C74FF2510F874023511F98882E6
:102BBC008983A31227457003022AB3E8240308086B
:102BCC0008E93400F9EE4F6003022ABC888289833D
:102BDC0074FFF0A3F09002FFE004F09002FFE060BD
:102BEC000A12314412045E7900800B850882850933
:102BFC00831234B7790A0233AF74EA12170674FEE3
:102C0C001216AF8C128D13EA2405F50CEB123E490B
:102C1C001239E7750800750900EA2402F510EB3447
:102C2C0000F51185188285198385820A85830B78B6
:102C3C000A121919850C82850D83A3A3A3A3122D47
:102C4C00DD121919E50C2405F50AE50D1234A378EB
:102C5C000A121919850C82850D83122DE11206F2C8
:102C6C0074061216C58A0A8B0BEA450B7003022DEB
:102C7C0082EA2404F50EEB122DC71239E78A828BF7
:102C8C0083A3A3A3E0F985108285118312315860C8
:102C9C0003022D82E4F514F5157814121919751424
:102CAC00E875150278141219197514E9751502785E
:102CBC001412191974061216FA1219307913AC0A77
:102CCC00AD0B851082851183123E671216C5E9F58E
:102CDC00096003022D829002E8E0F8E5087009E033
:102CEC002402900300F08014900300E0FCE824021E
:102CFC00FAE43400FBEA6C7001EB707E850882AA62
:102D0C0082122F079414122EFF506B850E82850FA2
:102D1C0083E0C0E074012A122DBED0E0F0050885D6
:102D2C000E82850F83A3E0C0E085080A7401250A92
:102D3C00122DBED0E0F005089002E8122DDD12191C
:102D4C00197CE97D0285080A7401250A122DD1121D
:102D5C0016C59002E8E02508F50874FF6E70037440
:102D6C00FF6F6012EE24010EEF3400FFE508C394F0
:102D7C00145003022C2FE508601312316285108267
:102D8C0085118312314E12046479008014E50970A8
:102D9C000375090A851282851383EEF0A3EFF0A95F
:102DAC000974021216C57F0E0217D885080C74011F
:102DBC00250CF58274033400F583223400F50F855D
:102DCC000E82F58322FA74033400FB120F987402FE
:102DDC0022123A1D22A3A3122DE7221234AEFDEECD
:102DEC00FAEFFB2274EE12170674FE1216AF8C0E5D
:102DFC008D0FEA2405F50CEB1239BE750B00900211
:102E0C00FFE4F0F50AEA2402F508EB3400F509803A
:102E1C00449002FFE0FA9002E8E0F8122F079417B2
:102E2C00122EFF400D9002FFE0F87416C39890022A
:102E3C00E8F0122F101219197CE97D0274002AFA9D
:102E4C007403122DD41216C59002E8E0F89002FF1C
:102E5C00E028F0050AE50C2416F582E50D122DC2CA
:102E6C00E0F8E50AC39850749002FFE0C394165042
:102E7C006BE50AC333F8E433F9E50C28FEE50D39AC
:102E8C00FF851882851983AC82AD838E828F831265
:102E9C002F197008750B011234B38050E4F510F53E
:102EAC001178101219197510E87511027810121991
:102EBC00197510E975110278101219197406121689
:102ECC00FA1219307916850882850983123E671229
:102EDC0016C5E9F50B7003022E1D80BB7CFF7D022D
:102EEC0085088285098312314E120476A90B74026F
:102EFC000233B1E99400C365D03322EA28F8E434F4
:102F0C0000F9E822E0F5107511007810221233A6B2
:102F1C008A108B11AC10AD11EC4D2274EA1217060D
:102F2C0074FC1216AF8A0C8B0D8C128D13EA2405CF
:102F3C00F50AEB1234A3750800750900E50A2402A2
:102F4C00F510E50B3400F51174021216FA85820E99
:102F5C0085830F780E121919850A82850B83A3A31A
:102F6C00A3A31239C3121919E50A2405F50EE50BB2
:102F7C003400F50F780E1219198510828511831201
:102F8C0034A91231481206F274061216C58A0E8B39
:102F9C000FAE0EAF0FE50C2402F50EE50D3400F567
:102FAC000F80388882898374FFF00508122DB7745E
:102FBC00FFF005089002E8E0F50C750D00780C1296
:102FCC0019197CE97D0285080C7401250C122DD190
:102FDC001216C59002E8E02508F508EE4F60278E22
:102FEC00828F83A3A3A3E0F9850E82850F83123110
:102FFC0058EE24041239BBE96027850C82850D83B9
:10300C0012313A1234C0E5087003023120123162D9
:10301C00850E82850F8312314E12047C79000231A9
:10302C0035E4F514F51578141219197514E875159D
:10303C000278141219197514E975150278141219FD
:10304C001974081216FA1219307911EEFCEFFD857D
:10305C000E82850F83123E671216C5E9F509709A28
:10306C00850882AA82EA9002E87009E024049003A1
:10307C0000F08025E0F8900300E0F514E82404FC4F
:10308C00E43400FDEC65147001ED7081122F07948F
:10309C0012122EFF4003023019850C82850D83E03D
:1030AC00C0E074012A122DBED0E0F00508850C8218
:1030BC00850D83A3E0C0E0122DB7D0E012317D85E1
:1030CC00820C85830D780C12191974041216FA12DD
:1030DC0019308510828511831231741216C58A0C31
:1030EC008B0DAE0CAF0D85080C7401250CF8740318
:1030FC003400F9EE4F7003022FAF851882851983C7
:10310C00E08882898312317DA3E0C0E0122DB7D014
:10311C00E0022FBDE509700375090A850A82850B4B
:10312C008312313A1234C0A9097404022DAF123C37
:10313C00E3851282851383227CFF7D02850A8285BA
:10314C000B8312315222E0FAA3E0FB22123152120D
:10315C0006E0E9F50922900300E0F5F0E50884901B
:10316C0002FFF07CFF7D0222122DE71206FE740492
:10317C0022F005088518828519832274EC12170633
:10318C0074FE1216AF8A088B098C0E8D0FEA24057B
:10319C00FEEB3400FF123390EE24181239BBEA45D3
:1031AC000B700302323312337950291232588A10C1
:1031BC008B11EA4511606B7912AC0AAD0B85088254
:1031CC0085098312314E851082851183121704E90B
:1031DC00F50A7058E4F50AF50B780A1219198E8263
:1031EC008F83A3A3E0F50A780A121919EE240312AF
:1031FC0034A0780A1219198E828F83123265120844
:10320C001874061216C5E9F50A7021850C82850D15
:10321C0083E0701F85088285098312314E12048267
:10322C008011750A0E8009750A018004E50A600395
:10323C001234B3850C82850D83E060047900800222
:10324C00A90A74021216C57F0C0217D8851882853C
:10325C001983123152120806221234AEFD850882EF
:10326C008509831231522274EE12170674FE12165F
:10327C00AF8A088B098C0C8D0DEA2405FEEB34000B
:10328C00FF750E00123390EA450B70030233571290
:10329C003379502C1232588A0E8B0FEA450F604A44
:1032AC007912AC0AAD0B85088285098312314E85E3
:1032BC000E82850F83121704E9F50E600302335A50
:1032CC00850882850983123595AA0AFB12336B7027
:1032DC00147AFF7BFF12336B606C88828983E50A5A
:1032EC00F0A3E50BF0750A008007750E0E805F05E4
:1032FC000A9002E5E0FAE50AC39A504AE50A75F02D
:10330C0017A4FAABF088828983A3A3E02AFAA3E07E
:10331C003BFB8A828B831234A9EC4D70D2750A1751
:10332C00750B00780A121919EEFCEFFD120F987448
:10333C00021216C5EEFCEFFD850882850983123159
:10334C004E1204888014750E098003750E01123C10
:10335C00DB850C82850D831234C0A90E022EFA1265
:10336C0007FA8A108B11A810A911E84922E5082444
:10337C0002F508E5093400F5098A828B83A3A3A31F
:10338C00E0A2E522851882851983AC82AD838E82FA
:10339C008F831233A68A0A8B0B22E0FAA3E0FB126E
:1033AC0006F82274041216C57F0A0217D874EC12A0
:1033BC0017068C108D11EA2405F50CEB1239BE752D
:1033CC000F00EA2402F50AEB1234A3850A82F58376
:1033DC0012314E123EED7003023495750E00807161
:1033EC00850C82850D83E06401704F8E828F83A3E0
:1033FC00A31219308E828F83A3A3A3A3E0F51275B9
:10340C0013007812121919EE2405F512EF3400F599
:10341C001378121219191231481208187406121660
:10342C00C5E9F50F6014850C82850D83E4F0123C20
:10343C00DB8510828511831234C07C177D007900E6
:10344C00EEFAEFFB120FB08E828F83E4F0A3F0053F
:10345C000E9002E5E0F8E50EC398501EE50E75F0EF
:10346C0017A4F8A9F0850882850983A3A3123E53FB
:10347C001234A9EC4D60030233EC85088285098374
:10348C0074FFF0A3F0E50F700612314812048EA9F8
:10349C000F023253F50AEF3400F50B22A31234AEAF
:1034AC00FD22E0FCA3E0228E828F83123CE3850E8A
:1034BC0082850F83E8F0A3E9F022C082C0839002DA
:1034CC00E1E06A7003A3E06B70067AE17B02800492
:1034DC007A007B0002280874F71217067F00EF753C
:1034EC00F003A4F8A9F0EC28F8ED39F98882898367
:1034FC00E06A7003A3E06B7006E8FAE9FB800B0F3F
:10350C00EFC3940240D87A007B007F010217D87475
:10351C00F6121706123ACC70067A007B008007A3CD
:10352C00A3A3A312314E023B8D74F2121706E9FECF
:10353C00740E1216FA12359574101216FA1239FD11
:10354C008C828D83E06402703BA3123CDF888289FD
:10355C0083E0F50CA3E0F9A80C74026870037429DD
:10356C00697021750C02750D00780C121919780808
:10357C00121919780A121919EEF912083C7406126C
:10358C0016C580027901023BFDE0F50AA3E0F50BBC
:10359C002274E812170674FB1216AFE9851882859F
:1035AC001983F08A168B178C0E8D0F741F1216FA56
:1035BC001239FD74211216FA12359574231216FA6B
:1035CC001239E77510008C828D83A3A3A3E0A2E4CB
:1035DC00502A741D1216FA12325E8A828B83E5828F
:1035EC00458370030236A9790AAC0EAD0FAA16AB4F
:1035FC0017121704E9F51060030236AC850E8285AC
:10360C000F83E064026003023962A3123CDF850879
:10361C0082850983A3858212858313E50E2406F522
:10362C000CE50F1239BE88828983E0FAA3E0F9EA2F
:10363C002400F514E439F51578141219A3010000CF
:10364C0028012871360700022848370328B83600AD
:10365C0029723801299A3802294138032972380411
:10366C002903396239EE4F703E850C82850D831229
:10367C0039D8FAE9FB8A828B83E0850A82850B8331
:10368C00123A141219198A828B83A31234AEFDAA32
:10369C0008AB09120F9874021216C5800375100E30
:1036AC00A9107405023E4175100B80F4EE4F70F7B3
:1036BC00850A82850B837401F01239ED85088285A9
:1036CC000983F07C007D00850E82850F83A3A3A364
:1036DC00A3E02401FAA3E03400FB1206F8EA4B60E5
:1036EC00418A828B83E02402F8850A82850B83E071
:1036FC0028F0EA2404F8EB3400F988828983E08509
:10370C001282851383123A26123A141219198A82DC
:10371C008B831234A8E5082403FAE5093400FB0274
:10372C00369F850A82850B83E02404F07C047D009F
:10373C007900AA12AB13120FB00236ACEE4F600335
:10374C000236B31239EDFEA3E0FF850A82850B83A6
:10375C007404F0EE850882850983F0EF851282856A
:10376C001383F074031216FAAC82AD83EEFAEFFBFE
:10377C00123ABA700302381E8A828B83A3A31239C1
:10378C00E374011216FA85820E85830F780E1219D6
:10379C001974051216FA1219307CFF7DFF1206FE01
:1037AC0074041216C58B0FEA450F7033850C828595
:1037BC000D831239C3121919850C82850D83A3123E
:1037CC0019307C027D007AE37B8412052A74041282
:1037DC0016C5E9700A74011216FA74FFF0A3F08E84
:1037EC00828F83E064027034750C02750D00780CC6
:1037FC001219198E828F831234A8E5082404FAE575
:10380C0009122DD41216C5850A82850B83E0240279
:10381C00800974011216FAEEF0A3EFF0740112167F
:10382C00FA1239D4F074011216FAA31239CCA3A3EC
:10383C00A3F00236ACEE4F60030236B3850C8285E2
:10384C000D831234A9AA16AB17120830850A82858B
:10385C000B837402F0EA850882850983F085128255
:10386C00851383EB80CBEE4F60030236B31239ED38
:10387C00F8A3E0F9850A82850B837402F0E88508C9
:10388C0082850983F0E985128285138380A3850CD8
:10389C0082850D8312314E120F92EAFC8C82A88223
:1038AC00C39EE49F404BE86E7001EF70047C008077
:1038BC001F851882851983E0FAEE2AFAEF3400FB93
:1038CC00C3EA98EB94005003E08004EECCC39CFC5C
:1038DC00EC850A82850B83F08C0A750B00780A1232
:1038EC001919850C82850D83E02EFCA3E03F02366E
:1038FC009A7510070236ACEE4F60030236B3850C96
:10390C0082850D83123CDF850A82850B837407F058
:10391C00888289831239CC1239B4E08512828513DE
:10392C0083F0E82402FAE93400FB8A828B83123993
:10393C00CC123A051239D4A3123A0E1239DDF0E842
:10394C002405F8E93400F9888289831239DDA31241
:10395C003A26A302383A741D1216FA123AC57003AD
:10396C000236A9123CDF880C890DE8450D70030264
:10397C0036A98E108F117810121919780A1219198C
:10398C00780812191974061216FAE0F9AC0EAD0F7C
:10399C00AA16AB17850C82850D83121704740612B8
:1039AC0016C5E9F5100236ACF088828983A322F59E
:1039BC000CEF3400F50D22E0F50E750F00780E2299
:1039CC00E085088285098322123A2D22123CE3E815
:1039DC0022123A2DA3A322A3A3A3A3E0FEA3E0FFEC
:1039EC0022850C82850D83E0F8A3E0F5838882E0C4
:1039FC0022E0F508A3E0F50922A3A3F08A828B83C9
:103A0C00A3221226C0A3A322F08A828B83123A1D12
:103A1C0022E0F50A750B00780A221239B4123A2DFD
:103A2C0022E0850882850983A3A32274EE1217066F
:103A3C0074FE1216AF8A0A8B0BECFAEDFB7414129F
:103A4C0016FAE0F510A3E0F51174161216FAE0FE62
:103A5C0074181216FAE0F50EA3E0F50F851882859E
:103A6C001983AC82AD83123ABA603E8518828519EF
:103A7C0083123AC5602FA3A31239FDE508450960EE
:103A8C0024780E1219197810121919EEF9AC0CAD24
:103A9C000DAA0AAB0B8508828509831217047404DE
:103AAC001216C58006790E80027901022EFA1206D2
:103ABC00F88A0C8B0DEA450D22123152123ACC22A7
:103ACC001207C48A828B83E58245832274F612170F
:103ADC000674FE1216AF740C1216FA1239D8851829
:103AEC0082851983F074011216FAE9F0E4F508F5F1
:103AFC000978081219197508027808121919740432
:103B0C001216FA8582088583097808121919120889
:103B1C001874061216C574021216C5806474F71256
:103B2C001706EAFEEBFF89087C187D03120830EAC1
:103B3C005402600BA908EEFAEFFB1206EC80027936
:103B4C000102351674F612170674FF6A700374FFBF
:103B5C006B701C7B00EB75F003A4F8A9F0EC28F853
:103B6C00ED39F9123B920BEBC39402501480E61220
:103B7C0008008A088B09A808A909E8496003123BC8
:103B8C00927F020217D88882898374FF1226BEE4C2
:103B9C00F02274F61217061208008A828B83E582D3
:103BAC0045836006A3A3E0FA80027A007B0080D1F3
:103BBC0074F21217068A088B09ECFEEDFF740E12D4
:103BCC0016FAE0F50A123C02701CEEFCEFFD7AFFCF
:103BDC007BFF123C0270047911801688828983E580
:103BEC0008F0A3E509F088828983A3A3E50AF0799C
:103BFC00007F060217D81208008A0C8B0DA80CA99E
:103C0C000DE8492274EE121706EAFEEBFF8C088DC4
:103C1C0009890C74121216FA123CDF74141216FA7B
:103C2C001234A974161216FA12314E750D00EC4DA1
:103C3C006003023CD37402650C6003023CCE8882A4
:103C4C0089831234AEF9EC2400F50EE439F50FEA51
:103C5C00F4F8EBF4F9EC58F8E50F59F9E849705D14
:103C6C00E5082406F8E5093400F9880A890B8882EE
:103C7C00F583122DE31208308A108B11E50E6510B6
:103C8C007004E50F65116042780E121919850A82CD
:103C9C00850B83122DE312083674021216C5E9F552
:103CAC000D7027780E121919850882850983A3A334
:103CBC00122DE112084E74021216C5800D750D807E
:103CCC008008750D0D8003750D0BA90D0233B48E94
:103CDC00828F83123CE322E0F8A3E0F92274E8120D
:103CEC00170674E71216AF851882851983EAF0A3BC
:103CFC00EBF08C168D17890E74311216FAE0F51252
:103D0C00A3E0F51374331216FAE0F514A3E0F515DD
:103D1C0074351216FAE0F50F750800750900E509FF
:103D2C0075F003A4F8A9F0851882851983123E5307
:103D3C00E0F47003A3E0F47003023E31EE2402F5CC
:103D4C000CEF123E49E07003023E3185160A8517CE
:103D5C000B780A121919AC14AD15AA12AB13120771
:103D6C00B874021216C58A0A8B0BEA450B70030253
:103D7C003E31E4F510F5117810121919740612166B
:103D8C00FA8582108583117810121919740912168C
:103D9C00FA85821085831178101219198512828583
:103DAC001383A3A3A3A31219307914AC0AAD0B8E01
:103DBC00828F83123E671216C5E97069850A828567
:103DCC000B83A3A3A3A3123CDF74021216FA1234C2
:103DDC00C0850C82850D83E0A2E05018A90E7402F8
:103DEC001216FAAC82AD838E828F8312314E12077B
:103DFC0010E94208850C82850D83E0A2E15026E58E
:103E0C000FF50A780A12191DA90E74031216FAACD2
:103E1C0082AD838E828F8312314E12070A74011287
:103E2C0016C5E942080509E509C394025003023D91
:103E3C002AA90874191216C57F100217D83400F578
:103E4C000D850C82F58322E028FEA3E039FF8E82DB
:103E5C008F83227916850A82850B831231521208C0
:103E6C001274082274F2121706EAFEEBFF890B7427
:103E7C0001650B600E7402650B70637901120A28E0
:103E8C00E9705BEEFAEFFB123EED6047750A0080BD
:103E9C000B7C177D007900120FB0050A9002E5E04B
:103EAC00F8E50AC3985021E50A75F017A4F8A9F0B3
:103EBC00850882850983A3A3E028FAA3E039FB8A4D
:103ECC00828B8312280F70C985088285098374FF41
:103EDC00F0A3F07C187D03EEFAEFFB12082A023BEC
:103EEC00FD1207FA8A088B09EA45092274F21217A7
:103EFC00068A088B09ECFEEDFF740E1216FA1235C9
:103F0C00959009F2E0F4603D7A097B00120FC2EA49
:103F1C004B60328A828B8374B1F0A3E4123A07A30C
:103F2C00123A05A3E508F0A3E509123F54EEF0A3FD
:103F3C00EF123F54A3A3E50AF0A3E50BF09009F2AE
:103F4C00E0F9120FCE023BFDF08A828B83A3A3A370
:103F5C00A3A322C082C0839061907404F0A3744820
:103F6C00F0A37402F09061807440F09061BC740313
:103F7C00F09061877419F0906265741BF090619CED
:103F8C00740DF090619A7433F0A37455F09061A0A5
:103F9C00743AF090055CE064017009C2919003C61C
:103FAC00746780059003C67461F0902582E4939049
:103FBC006186F090257CE493F46027E493540FF829
:103FCC00906185E0686012E5C654804449F5C6E509
:103FDC009E547F644970F8E8F053C680E59E547F88
:103FEC0070FA7905120D7C0241A1C082C083E9549C
:103FFC000FF9906185E0696012E5C654804449F57B
:10400C00C6E59E547F644970F8E9F053C680E59E7E
:10401C00547F70FA0241A1C082C083E5A8F853A86E
:10402C007E906181E4F0A3F0A3F0C2BA539AFEC271
:10403C0089759B00C2C275E90075910075BF00754A
:10404C00A91175B905906181F0A374C0F0A3E4F0D7
:10405C00D2BA439A0174805842A80241A1C082C0CE
:10406C008374F81216AF9003C4E0F8A3E0F9E849A2
:10407C0070030241979003C4E05440602379088593
:10408C001882851983AA82AB83120BE4851882856A
:10409C001983AA82AB831208BA9003C4E054BFF010
:1040AC00E054806010790C7A807B05120BE490034D
:1040BC00C4E0547FF0E0A2E0503190619A7433F088
:1040CC00A37455F09061A0743AF090055CE0640123
:1040DC007009C2919003C6746780059003C6746121
:1040EC00F01208C09003C4E054FEF0E054026031BA
:1040FC0090619A743FF0A3745AF09061A0747FF0B1
:10410C0090055CE064017009D2919003C6747180D3
:10411C00059003C6746AF01208C09003C4E054FD05
:10412C00F0E054046013902580E493906186F012C3
:10413C0008C69003C4E054FBF0E0540860139025CB
:10414C0081E493906186F01208C69003C4E054F7A2
:10415C00F0E054106013902582E493906186F01285
:10416C0008C69003C4E054EFF0E05420600A120833
:10417C00C69003C4E054DFF0A3E05401600D120BB1
:10418C000C1208CC9003C5E054FEF074081216C54E
:10419C008003F0A3F0D083D08202013574EC1217A7
:1041AC000674F41216AF851882851983AC82AD8320
:1041BC0075838475825774041215C290258093F40C
:1041CC006003024335907808E0C394025003024325
:1041DC001574041216FAAC82AD837583837582DA7A
:1041EC0074081215C28518828519838582128583FD
:1041FC001374041216FAAC82AD83750EFF750FFFA3
:10420C007FFF7E00750C48750D78801574086E70F4
:10421C00030242A874096E70030242A8740A6E600D
:10422C007B850C82850D83780812157F8C828D839B
:10423C00A909E50AC9F88810741878081214C0E5A1
:10424C00104508F8C3E098A3E099850C82850D838E
:10425C00780812157F40188C828D83741878081298
:10426C0014C0E5104508F8E0C398F8A3E0801C746E
:10427C001878081214C0E5104508FAE9FB8C828DF9
:10428C0083E0F8A3E0F9EAC398F8EB99F9C3E89551
:10429C000EE9950F5006880E890FEEFF0EE50C24E3
:1042AC0004F50CE50D3400F50DEEC3941350030228
:1042BC00421874FF650E700474FF650F60238F083D
:1042CC007402780812169C74482508F582747835A7
:1042DC0009F583780812157F851282851383E5080A
:1042EC00F0EC24020C0CED3400FD85128285138356
:1042FC00A3858212858313740C1216FAE5826C70F6
:10430C0003E5836D600302420675080175090078A8
:10431C000812191974021216FAAC82AD837A607BFA
:10432C00091211A274021216C5740C1216C57F0C58
:10433C000217D8C082C0839061AE7468F0A3746A0F
:10434C00F090624574FBF0A304F053F4FD43FE02BD
:10435C0090055C7401F09061A0E0643A90619A70F1
:10436C00237433F0A37455F09061A0743AF0740187
:10437C0064017009C2919003C6746780289003C6CB
:10438C0074618021743FF0A3745AF09061A0747F23
:10439C00F0740164017009D2919003C674718005A8
:1043AC009003C6746A0241A07F040217D8C082C071
:1043BC008390050EE06401700A900513E0600479A7
:1043CC000C800279000241A1C082C08375E1F1909A
:1043DC000511E0605514600814605914605180593F
:1043EC00120B1E900507E0F97A087B05120CFE9063
:1043FC00849312159D120D3490846312159D120D29
:10440C000A900512E0F9120D167901120D70900543
:10441C0005E02416F8A3E03400F988828983743609
:10442C00F0A3740BF079000241A1120B2480B4129A
:10443C000B2A80AF120B3080AA791280EA74F41226
:10444C00170675D90D9004F6E0A2E0E4331313F8C7
:10445C00900507E0C4333354C0484401F5D97805BE
:10446C00790588828983A3A3A3E0F5D988828983FF
:10447C00A3A882A983E8640B7003E9640570E37850
:10448C00F6790488828983A3E0F5D988828983A38D
:10449C00A882A983E864FC7003E9640470E575E103
:1044AC00959004F6E0F97AF77B04120D04900A1447
:1044BC0074CAF0A3740AF0A3742CF0A3740CF0A3C8
:1044CC00742CF0A3740CF0A3742CF0A3740CF0A354
:1044DC0074D0F0A3740AF0A3742CF0A3740CF0A3A2
:1044EC0074E8F0A3740AF0900A22742CF0A3740CF4
:1044FC00F0A3742CF0A3740CF0A3742CF0A3740C24
:10450C00F0A3742CF0A3740CF0A3742CF0A3740C13
:10451C00F0A3742CF0A3740CF0900505E0F8A3E064
:10452C00F5838882A3A3780812157F90848F78086E
:10453C0012150B90846B7808121559900505E02420
:10454C000EF8A3E03400F988828983780812158E5E
:10455C00900505E02414F8A3E03400F988828983DF
:10456C007413F09003C27402F00243B4C082C0838F
:10457C00900517E02407F5D9900507E0C4333354B0
:10458C00C0F5D97805790588828983A3A3A3E0F5C2
:10459C00D988828983A3A882A983E8640B7003E974
:1045AC00640570E3900517E0601F78057905FAE85B
:1045BC002413F582E93400F583E0F5D988828983E8
:1045CC00A3A882A9831AEA70E6900537E02407F5C0
:1045DC00D9900507E0C4333354C04404F5D97805A9
:1045EC00790588828983A3A3A3E0F5D9888289837E
:1045FC00A3A882A983E8640B7003E9640570E390B7
:10460C000537E0601F78057905FAE82433F582E96F
:10461C003400F583E0F5D988828983A3A882A98325
:10462C001AEA70E675E195900A1474D6F0A3740A30
:10463C00F0A3742CF0A3740CF0A3742CF0A3740CE2
:10464C00F0A3742CF0A3740CF0A374D0F0A3740A30
:10465C00F0A3742CF0A3740CF0A374E8F0A3740A08
:10466C00F0900A22742CF0A3740CF0A3742CF0A319
:10467C00740CF0A3742CF0A3740CF0A3742CF0A3A2
:10468C00740CF0A3742CF0A3740CF0A3742CF0A392
:10469C00740CF090849B12159D900505E0240EF887
:1046AC00A3E03400F9888289831215A9900505E0EE
:1046BC002414F8A3E03400F9888289837412F090F2
:1046CC0003C274010241A0C082C083900517E0248C
:1046DC0007F5D9900507E0C4333354C04402F5D92B
:1046EC007805790588828983A3A3A3E0F5D988820C
:1046FC008983A3A882A983E8640B7003E96405701D
:10470C00E3900517E0601F78057905FAE82413F5A6
:10471C0082E93400F583E0F5D988828983A3A882E5
:10472C00A9831AEA70E675E195900A1474E2F0A375
:10473C00740AF0A374E2F0A3740AF0A374E2F0A379
:10474C00740AF0A374E2F0A3740AF0A374E2F0A369
:10475C00740AF0A374E2F0A3740AF0A374E8F0A353
:10476C00740AF0900A22742CF0A3740CF0A3742C2D
:10477C00F0A3740CF0A3742CF0A3740CF0A3742CA1
:10478C00F0A3740CF0A3742CF0A3740CF0A3742C91
:10479C00F0A3740CF090849B12159D900505E024F9
:1047AC000EF8A3E03400F9888289831215A99005CC
:1047BC0005E02414F8A3E03400F98882898374148A
:1047CC00F09003C274040241A0C082C0839005170C
:1047DC00E02407F5D9900507E0C4333354C04406F0
:1047EC00F5D97805790588828983A3A3A3E0F5D947
:1047FC0088828983A3A882A983E8640B7003E96487
:10480C000570E3900517E0601F78057905FAE82438
:10481C0013F582E93400F583E0F5D988828983A306
:10482C00A882A9831AEA70E6900537E02407F5D927
:10483C00900507E0C4333354C04404F5D9780579A6
:10484C000588828983A3A3A3E0F5D988828983A3F1
:10485C00A882A983E8640B7003E9640570E39005F2
:10486C0037E0601F78057905FAE82433F582E934DE
:10487C0000F583E0F5D988828983A3A882A9831ADD
:10488C00EA70E675E195900A1474DCF0A3740AF0F2
:10489C00A3742CF0A3740CF0A3742CF0A3740CF080
:1048AC00A3742CF0A3740CF0A3742CF0A3740CF070
:1048BC00A3742CF0A3740CF0A374E8F0A3740AF0A6
:1048CC00900A22742CF0A3740CF0A3742CF0A37433
:1048DC000CF0A3742CF0A3740CF0A3742CF0A37440
:1048EC000CF0A3742CF0A3740CF0A3742CF0A37430
:1048FC000CF090849B12159D900505E0240EF8A3F6
:10490C00E03400F9888289831215A9900505E0240A
:10491C0014F8A3E03400F9888289837415F09003AD
:10492C00C274030241A0C082C083900505E0F8A3C5
:10493C00E0F5838882A3A3A3A3A3A3E402419E74FE
:10494C00F71217069003F0E0F875F004A4C8AAF06B
:10495C002AF974F228F8740339F9E82405FAE934D1
:10496C0000FB8A828B83E0FCA3E0FD88828983A311
:10497C00A3A3A3A3A3A3A3A3ECF0A3EDF088828924
:10498C0083A3A3A3A3A3A3A3E024FFF8A3E034FF72
:10499C00F98A828B83E8F0A3E9024BF074F71217C3
:1049AC0006EAFEEBFF9061D0E06003024A8575D900
:1049BC000E75D90375D904EE248CF582EF3400F50D
:1049CC0083E5822408F8E5833400F9E0F5D9A3E8FF
:1049DC0065827003E9658370F2EE2484F582EF340E
:1049EC0000F583E5822404F8E5833400F9E0F5D979
:1049FC00A3E865827003E9658370F275E195790827
:104A0C00EE248CFAEF3400FB120BD87904EE2484DC
:104A1C00FAEF3400FB120BD87C00EEF8EFF9ECFA4D
:104A2C00C3E49AFA95E0FBEE2AFAEF3BFBEA248BFF
:104A3C00F582EB3400F583E0C0E0E824ABF582E9C5
:104A4C003400F583D0E0F00C88828983A3A882A976
:104A5C0083ECC3940840C7EE2470F582EF3400F564
:104A6C0083E0F8A3E0F9EE2472F582EF3400F583CD
:104A7C00E8F0A3E9F0790180027900024BF1C082E1
:104A8C00C08375D90275D90375D90575E195EA24EA
:104A9C0070F582EB3400F583E0F8A3E0F9EA2472B8
:104AAC00F582EB3400F583E8F0A3E9F079010241DB
:104ABC00A174F6121706EAFEEBFF9005607406F07F
:104ACC0075086075090578081219197C01790312AB
:104ADC000C2074021216C575D90675D9037582603F
:104AEC00758305E0F5D9A3E58264657004E58364FC
:104AFC000570F075E1959003C2E06408701EEE2419
:104B0C0070F582EF3400F583E0F8A3E0F9EE24723F
:104B1C00F582EF3400F583E8F0A3E9F07901024C5B
:104B2C00BD74F6121706EAFEEBFF9061D0E07066DA
:104B3C007801900560740BF09003C2E06407701963
:104B4C0075086075090578081219197C017903122A
:104B5C000C2074021216C57805740128F5D975D984
:104B6C0003758260758305E8FAE0F5D9A31AEA703B
:104B7C00F875E195EE2470F582EF3400F583E0F8DA
:104B8C00A3E0F9EE2472F582EF3400F583E8F0A38C
:104B9C00E9F0790180027900024CBD74F712170616
:104BAC00EAFEEBFF75D90375D90375D90DEE24DE3A
:104BBC00F582EF3400F583E0F5D975E195790412AF
:104BCC000D3AEE2470F582EF3400F583E0F8A3E0A3
:104BDC00F9EE2472F582EF3400F583E8F0A3E9F0E6
:104BEC0079018001F07F010217D874F6121706EADA
:104BFC00FEEBFF9061D0E0F87480C398FAEE24834A
:104C0C00F582EF3400F583E06004780480027800CC
:104C1C00E8240BF8EAC3985003024CBB7D099005BD
:104C2C0060EDF0EE24E3F8EF3400F97A617B057C5B
:104C3C000888828983E08A828B83F088828983A3A7
:104C4C00A882A9838A828B83A3AA82AB831CEC7073
:104C5C00E0EE2483F582EF3400F583E0601D7508E7
:104C6C006075090578081219197C097903EEFAEFB9
:104C7C00FB120C2074021216C57D0D74012DF5D992
:104C8C0075D9037582607583058D08E0F5D9A31578
:104C9C0008E50870F675E1957904120D3AEE241DBD
:104CAC00F582EF3400F583E4F0A3F079018002790A
:104CBC00007F020217D874F6121706EAFEEBFF907B
:104CCC0061D0E0F87480C398FAEE2483F582EF3457
:104CDC0000F583E06004780480027800E82408F88A
:104CEC00EAC3985003024DC27D06900560740CF027
:104CFC009003DFE0900561F07AE07B037862790540
:104D0C007C028A828B83E088828983F08A828B83FF
:104D1C00A3AA82AB8388828983A3A882A9831CEC73
:104D2C0070E07AE27B037C028A828B83E088828942
:104D3C0083F08A828B83A3AA82AB8388828983A324
:104D4C00A882A9831CEC70E0EE2483F582EF34007A
:104D5C00F583E0601D75086075090578081219194E
:104D6C007C067903EEFAEFFB120C2074021216C5C6
:104D7C007D0A74012DF5D975D9037582607583058B
:104D8C008D08E0F5D9A31508E50870F675E195795D
:104D9C0004120D3AEE2470F582EF3400F583E0F83E
:104DAC00A3E0F9EE2472F582EF3400F583E8F0A36A
:104DBC00E9F0790180027900024CBD74F6121706F5
:104DCC00EAFEEBFF9061D0E0F87480C398FAEE2411
:104DDC0083F582EF3400F583E06004780480027878
:104DEC0000E82404F8EAC3985003024EA17802901C
:104DFC000560E8F0EE24F5F582EF3400F583E090E1
:104E0C000561F0EE2483F582EF3400F583E0601B3E
:104E1C0075086075090578081219197C027903EE7A
:104E2C00FA120C2074021216C57806740128F5D9F2
:104E3C0075D9037582607583058808E0F5D9A315CB
:104E4C0008E50870F675E195EE2474F582EF3400F0
:104E5C00F583E4F0EE2480F582EF3400F583E4F082
:104E6C00EE241DF582EF3400F583E4F0A3F0790411
:104E7C00120D3AEE240DF582EF3400F583E0F8A321
:104E8C00E0F9EE2472F582EF3400F583E8F0A3E943
:104E9C00F0790180027900024CBD74F6121706906D
:104EAC0061D0E0F87480C398FCEA2483F582EB347B
:104EBC0000F583E06004780480027800E82404F8AC
:104ECC00ECC398405B79029005607407F0EA24F615
:104EDC00F582EB3400F583E0900561F0EA2483F56C
:104EEC0082EB3400F583E06018750860750905786D
:104EFC00081219197C0209120C2074021216C579B9
:104F0C0006740129F5D975D903758260758305E995
:104F1C00F8E0F5D9A318E870F875E19579018002ED
:104F2C007900024CBD74F5121706E9FCA2AFE4330C
:104F3C00F50AC2AF7D0080010DEA246FF582EB34D7
:104F4C0000F583E0F8EDC398501A8D08EA2508F8AF
:104F5C00EB3400F9E8246BF582E93400F583E06C5E
:104F6C0070D68024EA246FF8EB3400F9E0FEEA2EC8
:104F7C00FAEB3400FBEA246BF582EB3400F583EC9E
:104F8C00F088828983E004F0E50AA2E092AF7F0307
:104F9C000217D874F6121706A2AFE433FDC2AFEABB
:104FAC00246FF582EB3400F583E014F07C0060365E
:104FBC008C08EA2508F8EB3400F9E8246CF582E952
:104FCC003400F583E0C0E0E8246BF582E93400F5A9
:104FDC0083D0E0F00CEA246FF582EB3400F583E02B
:104FEC00F8ECC39840CAEA246EF582EB3400F583E2
:104FFC0074FFF0EA246AF582EB3400F583E4F0EDFB
:10500C00A2E092AF024CBDC082C083E5A8F8C2AF4B
:10501C00EA246BF582EB3400F583E9F0EA246AF5B7
:10502C0082EB3400F583E4F0E8A2E792AF0241A1F1
:10503C0074F3121706EAFEEBFFECFAEDFB8A828B97
:10504C0083A3A3A3A3E0541FF0EE2436F582EF3420
:10505C0000F583E4F0F50AEEFCEFFD8A828B83E029
:10506C00C0E0EC245DF582ED3400F583D0E0F07502
:10507C000B00E50A33333354F8F50C8A828B83E04A
:10508C00F508750900E50B780812167DE508A2E015
:10509C00502FEE2436F8EF3400F988828983E0F53E
:1050AC0008EE2508F508EF3400F509E5082438F575
:1050BC0082E5093400F583E50CF088828983E004ED
:1050CC00F0050B050CE50BC3940840AF050A8A826A
:1050DC008B83A3AA82AB838C828D83A3AC82AD839A
:1050EC00E50AC3940550030250677F050217D87474
:1050FC00F71217069003EEE0640170077A007B004C
:10510C000252727E009003F4E070F17401F0A3E49B
:10511C00F0A3F090045404F0900457E4F0A3F09042
:10512C00045A04F09003F7E4F0A3F0A3F0A3F0907A
:10513C00040104F0900427E4F090843F12159D9034
:10514C00040A1215A990040EE4F0A3F0A3F0900445
:10515C0072F0900466F090045B7480F0A3E4F0901D
:10516C000461F0900459F09004DDF0A3F0A3F0A3D7
:10517C00F0A3F0A3F0A3F0A3F09004E6F090047574
:10518C00F09004C5F0A3F090843F12159D9004C7D5
:10519C001215A990843F12159D9004CB1215A9905D
:1051AC0004D1E4F09004D3F09004CFF09004E9F033
:1051BC00A3F0A3F0A3F0A3F0A3F0A3F0A3F078EE78
:1051CC007903E8246FF582E93400F58374FFF00E5F
:1051DC0088828983A3A882A983EEC3940440E37ACE
:1051EC00EE7B0378FD790488828983E0C0E0EA24B1
:1051FC0061F582EB3400F583D0E0F088828983A3DB
:10520C00A882A9838A828B83A3AA82AB83E86402D7
:10521C007003E9640570D07AEE7B0378D579038846
:10522C00828983A3E0C0E0EA24E7F582EB3400F541
:10523C0083D0E0F088828983A3A882A9838A828B99
:10524C0083A3AA82AB83E864DD7003E9640370CFA7
:10525C009003EEE004F0640170089003F6E0900314
:10526C00F0F07AF27B03024BF1C082C0839003F51D
:10527C00E4F09003F4F09003EEF0A3F0A374FFF0CD
:10528C0075E1F10241A1C082C083780079009003DE
:10529C00F5E0600478F2790388828983A3A3A3A341
:1052AC00E0F90241A174F6121706EAFEEBFF8E82BA
:1052BC008F83A3A3A3E0600F8E828F83A3A3A3E4A9
:1052CC00F09003EFE014F09003EEE014F070069011
:1052DC0003F074FFF08E828F83A3A3E4F090050299
:1052EC00E0700D9003EFE0640170057900120D1C65
:1052FC00EE2465F582EF3400F583E0F8A3E0F9E8DD
:10530C00496029EE2465F8EF3400F988088909888A
:10531C0082F583E0FCA3E0FD9003F0E0FA7B001241
:10532C0008F0850882850983E4F0A3F0EEFAEFFB20
:10533C00120C50024CBD74F7121706EAFEEBFF8EEE
:10534C00828F83A3A3A3A3E0FA7B00120932EEFAA7
:10535C00EFFB120BA2120C38024BF1C082C0837807
:10536C00D5790388828983A3E4F088828983A3A8F2
:10537C0082A983E864DD7003E9640370E69003D6C8
:10538C000246CE74F6121706EAFEEBFFEC2403F885
:10539C00ED3400F988088909EC2407F8ED3400F99C
:1053AC00E8FCE9FD8C828D83E0F8A3E0F9850882A6
:1053BC00850983E0FAA3E0FB121624EE240DF58296
:1053CC00EF3400F583E8F0A3E9F08C828D83E0F8EC
:1053DC00A3E0F9850882850983E0FAA3E0FB1216A5
:1053EC00248B09EA45096013EE240DF582EF340095
:1053FC00F583E02401F0A3E03400F0024CBD74F618
:10540C00121706EAFEEBFFEE242EF582EF3400F5C0
:10541C0083E0FCA3E0FD780079FAECFAEDFB1216C0
:10542C0024EE2470F582EF3400F583E8F0A3E9F064
:10543C00780079FAECFAEDFB1216248B09EA45098F
:10544C006013EE2470F582EF3400F583E02401F054
:10545C00A3E03400F0024CBD74F0121706EAFEEB28
:10546C00FF74101216FA780812157F120CDA8A0CD7
:10547C008B0D8C0E8D0F90848B780C12150B9084E9
:10548C006B780C121559780C1219158E828F83E0DB
:10549C00F8A3E0F5838882A3A312159D1222AE74A3
:1054AC00041216C5E960030255B18E828F83E02485
:1054BC0002F8A3E03400F9E8FAE9FB8A828B8378DE
:1054CC000812151E90846B780812157F8A828B83C4
:1054DC00780812156CEE240BF582EF3400F583C0BE
:1054EC0082C0838E828F83A3A3A3A3A3E02401F89D
:1054FC00A3E03400F9D083D082E0687003A3E069A4
:10550C00700579010255B38E828F83A3A3A3A3A345
:10551C00A3A3E02401F0A3E03400F0EE2474F582A0
:10552C00EF3400F583E064017036EE2475F582EFFC
:10553C003400F583E0F8A3E0F98E828F83A3A3A354
:10554C00A3A3A3A3E0687003A3E0697013EE247512
:10555C00F582EF3400F583E02401F0A3E03400F091
:10556C00EE2480F582EF3400F583E064017036EEB2
:10557C002481F582EF3400F583E0F8A3E0F98E8204
:10558C008F83A3A3A3A3A3A3A3E0687003A3E069E1
:10559C007013EE2481F582EF3400F583E02401F0E2
:1055AC00A3E03400F079007F080217D874F71217C3
:1055BC00069003F0E0F875F004A4C8AAF02AF97478
:1055CC00F228FE740339FF8028EE2465F8EF3400CE
:1055DC00F988828983E0FCA3E0FD88828983E4F06A
:1055EC00A3F08E828F83A3A3A3A3E0FA7B001208FF
:1055FC00F0EE2465F582EF3400F583E0F8A3E0F9D2
:10560C00E849604FEE2464F582EF3400F583E0F551
:10561C0008780812191DEE2463F582EF3400F58327
:10562C00E0F9EE2465F582EF3400F583E0FCA3E0AD
:10563C00FDEEFAEFFB120BCC74011216C5E9608972
:10564C00EE2465F582EF3400F583E0F8A3E0F9E889
:10565C004970137C007D008E828F83A3A3A3A3E0EB
:10566C00FA7B001208F0024BF174F2121706EAFEF4
:10567C00EBFF890A740E1216FAE0FAEE2462F58238
:10568C00EF3400F583E0640160030257419061D070
:10569C00E0F87480C398F50CEE2483F582EF3400A7
:1056AC00F583E060047804800278008908E928F822
:1056BC00E43400F9E824020808E93400F9E50C9810
:1056CC00E499A2D265D0334068EA7005750B02806C
:1056DC0003750B01E0603975090078081219197A05
:1056EC00607B05120C0274021216C57508607509F0
:1056FC00057808121919AC0AA90BEEFAEFFB120C7B
:10570C002074021216C57404250AF50A7C607D0506
:10571C007401250AF5D9850BD9E50A600D8C828DAB
:10572C0083F8E0F5D9A318E870F875E19579008055
:10573C00067907800279FF7F060217D8C082C083E2
:10574C00E960208C828D83E08A828B83F08C828D41
:10575C0083A3AC82AD838A828B83A3AA82AB831989
:10576C00E970E0ECFAEDFB0241A174EA1217069025
:10577C007803E06442705E90055FE014F07056C2EE
:10578C00AF12579000782AD0E0F618D0E0F6E59FDB
:10579C005407F970059084878003908483780812ED
:1057AC00157FE9C4C0E07829E65508F50808E655E8
:1057BC0009F509740B780812168DD0E02508F890BD
:1057CC006270E0A2E740F8E8C333906272F0906236
:1057DC0070E0D2E0F09003F0E0F47003025B99E02B
:1057EC00F875F004A4C8AAF02AF974F228FE740320
:1057FC0039FFEE2402F582EF3401F583E0F8A3E0E3
:10580C00F9E849601EEE2402F582EF3401F583E0DD
:10581C00FAA3E0FBEE2401F582EF3401F583E0F905
:10582C00120FF28E828F83A3A3A3A3A3A3A3E0F8EA
:10583C00A3E0F98E828F83A3A3A3A3A3E8F0A3E92B
:10584C00F0906054E09003C9F0906055E09003CA6A
:10585C00F0906056E09003CBF0906057E09003CC52
:10586C00F0906058E09003CDF0906059E09003CE3A
:10587C00F090605AE09003CFF090605BE09003D022
:10588C00F090605CE0FC9003D1F090605DE0FB90E8
:10589C0003D2F090605EE0FD9003D3F090605FE087
:1058AC00FA9003D4F09003CFE08C082508F8E43488
:1058BC0000F98D08E82508F8E93400F98B08E8258B
:1058CC0008F8E93400F98A08E82508FAE93400FBFD
:1058DC00EE24F7F582EF3400F583E02AF0A3E03BE9
:1058EC00F08C08EE24F9F582EF3400F583E02508FE
:1058FC00F0A3E03400F0EE24FBF582EF3400F583E6
:10590C00E02401F0A3E03400F0EE24FFF582EF3444
:10591C0000F583E0F8A3E0F9E8496042906000E00C
:10592C00C333FCE433FDE82CF582E93DF583E02A32
:10593C00F0A3E03BF0906000E0FA9003D1E0FCEAC9
:10594C00C333FAE433FBE82AF8E93BF9E8244AF5D7
:10595C0082E93400F583E02CF0A3E03400F09003EE
:10596C00CFE070119003D2E0700BA3E07007A3E0BE
:10597C007003025A798E828F83A3A3A3A3A3E0F8AA
:10598C00A3E0F9EE240DF582EF3400F583E028F85E
:10599C00A3E039F9EE240BF582EF3400F583E8F03F
:1059AC00A3E9F0EE240FF582EF3400F583E4F0EE7A
:1059BC00241CF582EF3400F583E06401701EEE24A4
:1059CC0020F582EF3400F583E0F8A3E0F9EE241D16
:1059DC00F582EF3400F583E8F0A3E9F09003CAE018
:1059EC006052EE241CF582EF3400F5837401F0EE66
:1059FC00246AF582EF3400F583E07038EE2474F5F8
:105A0C0082EF3400F583E0702BEE2480F582EF34C6
:105A1C0000F583E0701EEE2420F582EF3400F58350
:105A2C00E0F8A3E0F9EE241DF582EF3400F583E8ED
:105A3C00F0A3E9F0906062E07003025B2C8E828F21
:105A4C0083E0F8A3E0F9E82406FCE93400FDE8243F
:105A5C0002FAE93400FB120CD48E828F83E02412FC
:105A6C00F8A3E03400F988828983025B369003D175
:105A7C00E0603AEE240FF582EF3400F583E4F0EEAB
:105A8C00241CF582EF3400F583E064017040EE24B1
:105A9C0020F582EF3400F583E0F8A3E0F9EE241D45
:105AAC00F582EF3400F583E8F0A3E98020EE24FDC5
:105ABC00F582EF3400F583E02401F0A3E03400F02C
:105ACC00EE241DF582EF3400F583E4F0A3F0EE2410
:105ADC000BF582EF3400F583E0F8A3E0F98E828FAA
:105AEC0083A3A3A3A3A3E0687003A3E069600302EC
:105AFC0059E8EE240FF582EF3400F583E060128E46
:105B0C00828F83A3A3A3A3A3E064057002A3E06028
:105B1C000B7908EEFAEFFB120BA88071793E80F33B
:105B2C00EE241DF582EF3400F583E4F0A3F09060D1
