:020000040000FA
:0600000002011D021D8E2D
:03002B0002243F6D
:0300330002242183
:03005300021E0486
:03006B000223F875
:10008300021C7FE5C754F84401F5C779012200003B
:100093000080FB120086B90003020107E47921788E
:1000A30008B800028004F709D8FCE479297802B87B
:1000B30000028004F709D8FCE490028178B579073F
:1000C3008002F0A3D8FCD9FA781A90014D7A01BACC
:1000D30000028007E493A3F608DAF9900935AA82AF
:1000E300AB8390014E78FF79038015E493A3AC8230
:1000F300AD838A828B83F0A3AA82AB838C828D83A8
:10010300D8E9D9E775828475839C740312012F752E
:100113008291758300740012012F75D00075813FA1
:10012300751881751902759F00020096C09FF59F8F
:10013300E473D09F22D083D082C09FE493C0E07445
:100143000193C0E0740293F59F2201FF0000B40005
:100153000028002800283075A000A000A000A000FF
:1001630000080008E001F00010001000100010006B
:100173001000100050005000500010001000D00775
:100183000000000000000F000100050030750700AB
:100193001000010081FF0000FF4A0668065006FFB9
:1001A30002020208025000A0000000E80302FD92D0
:1001B300010000CC9202D7920100008A0902D19279
:1001C300010000B20202D7920100008B0902CF9214
:1001D300010000C80202D7920100008C0902DD92DF
:1001E300010000CA0202D7920100008D0902F992B0
:1001F300080000CB0202D7920100008E0902EF92A1
:100203000100008F09FF0100FF2002FD92010000A1
:10021300C69202D792010000F30902DF92000000A8
:10022300000002D39203000018037A0C7A0C7A0CB4
:100233007A0C7A0C7A0C7A0C7A0C7A0C7A0C7A0C8B
:100243007A0C7A0C500F680F4A0FFFFF020202026A
:100253000202020202010D000000100102FD9201E0
:100263000000C99202D792010000360A02F39201FC
:100273000000780702D792010000370A02ED9201CD
:100283000000799102D792010000380A02EB920133
:100293000000509102D792010000390A02E992014D
:1002A3000000DD9002D7920100003A0A02E79201B2
:1002B3000000B99002D7920100003B0A02E59201C7
:1002C3000000CB9002D7920100003C0A02E39201A6
:1002D3000000A79002D7920100003D0A02E19201BB
:1002E30000005E9102D7920100003E0A02099301C9
:1002F30000003F0A01E803053F10FF0001307503CA
:1003030002010600000000000000000000000000E1
:10031300000000000000000000000000000000FFDB
:10032300FF0600800CE803140953696D706C654285
:100333004C455065726970686572616C05125000B6
:100343002003020A000201060302F0FF53696D70E5
:100353006C6520424C452050657269706865726116
:100363006CBE130000C4130A436861726163746551
:100373007269737469632031000243686172616357
:10038300746572697374696320320008436861722B
:100393006163746572697374696320330010436821
:1003A30061726163746572697374696320340002F6
:1003B300436861726163746572697374696320353C
:1003C3000002FD92010000C39202D7920100005186
:1003D3000B020193030000260902D592010000528B
:1003E3000B02D792010000630B0203930100002765
:1003F3000902D592010000640B02D7920100007537
:100403000B020593020000280902D5920100007631
:100413000B02D792010000870B020793000000290B
:100423000902D3920300002A0902D5920100008831
:100433000B02D792010000990B02F59204000030E1
:100443000902D5920100009A0B1201385F90031242
:100453000138769003120138A59003120138DE901B
:100463000312013806910312013834910312013843
:100473004B910312013862910312013878910312F0
:1004830001389F9103120138B29103120138C891C8
:1004930003120138DB910312013800920312013871
:1004A300A097021201389F9802120138D4980212C1
:1004B3000138F5980212013805990212013826997C
:1004C30002120138329A02120138FF9A02120138DD
:1004D300729B02120138F89B021201383B9C0212F4
:1004E3000138729C02120138F89C02120138CA9D2D
:1004F30002120138289E02120138409E021201386E
:10050300BA9E02120138BD9E02120138C09E021229
:100513000138679F021201387F9F02120138AF9F93
:1005230002120138CF9F02120138BDA00212013816
:1005330073A10212013883DE02120138ABDE02120C
:100543000138D9DE0212013810DF0212013878DFD8
:1005530002120138C1DF021201380CE00212013825
:100563004AE00212013887E002120138B5E00212B4
:1005730001385CE10212013866E10212013873E1CD
:1005830002120138A6E10212013868E202120138B0
:1005930074E2021201388CE20212013896E202126E
:1005A3000138979903120138A59903120138BD99AF
:1005B30003120138D5990312013892B1011201389F
:1005C30030B201120138A8B201120138BDB30112D1
:1005D3000138F7B301120138A0B40112013875B51F
:1005E30001120138D9B60112013830B701120138AE
:1005F300B7B7011201389EB801120138EBB80112E6
:10060300013879B9011201389DB90112013872BB61
:1006130001120138B3BB01120138D5BB01120138F5
:1006230056BC0112013840BD0112013806BE011249
:100633000138BBC3021201388DC40212013836C51A
:100643000212013879C50212013806C602120138B6
:1006530092C60212013873C702120138A2C70212EE
:1006630001389EC802120138E6C802120138E8C9EF
:10067300021201382CCA0212013852CA021201387E
:100683001F9B03120138E4F302120138FAF302123A
:10069300013820F40212013848F50212013852F5EC
:1006A30002120138ABF602120138ABF7021201381D
:1006B300F1CF0212013826D10212013859D10212A8
:1006C3000138A3D10212013861D3021201380D930C
:1006D30001120138709301120138B59401120138E7
:1006E300C59401120138E8940112013833950112BF
:1006F3000138D89501120138CE9601120138989726
:10070300011201381099011201385299011201386E
:10071300F099011201383D9A01120138639A0112CE
:100723000138519C01120138569C01120138379E41
:10073300011201388B9E01120138ED9E011201381E
:10074300159F01120138B99F011201387BA00112D4
:100753000138ACA001120138AFA001120138F7A093
:100763000112013839A101120138A0A10112013887
:10077300DE8503120138F185031201380A8603125C
:100783000138558603120138308703120138BF87B9
:10079300031201380A880312013864240012013855
:1007A300702400120138A92400120138EE2400122B
:1007B3000138A525001201382B2600120138902696
:1007C30000120138BC2600120138F5260012013848
:1007D300092900120138E52A00120138D02C001231
:1007E3000138072E001201386730001201385331E7
:1007F30000120138993200120138A6330012013871
:10080300C33300120138FB330012013815340012D0
:1008130001387D3400120138173900120138B83914
:1008230000120138093A00120138303A0012013837
:100833007E3A001201389C3A00120138F03A001255
:100843000138C93B00120138503D00120138D83D30
:1008530000120138D9D902120138E3D90212013842
:10086300AEDA02120138C9DA02120138EFDA0212E3
:10087300013833DB021201386BDB0212013894DBDF
:10088300021201380DDC0212013822DC0212013897
:1008930037DC021201386EDC0212013882DC0212EC
:1008A3000138B3DC02120138EDDC0212013819DD24
:1008B300021201386FDD02120138C3DD0212013862
:1008C3000CDE0212013836DE021201385BDE021240
:1008D300013814EC02120138DEEC02120138C1EDCA
:1008E3000212013837EE0212013879EE0212013892
:1008F300A6EF021201380080021201382980021289
:100903000138428002120138878102120138658260
:100913000212013884820212013811830212013853
:10092300548302120138A184021201384085021255
:100933000138BF87021201385688021201382A890A
:10094300021201380C8A02120138788B0212013824
:100953000B8C02120138D7FE0212013840FF02123B
:10096300013894FF02120138BBFF02120138BFE7BE
:10097300021201382CE80212013877E8021201381A
:100983006CE90212013868EA0212013852EB0212D2
:100993000138E1AA0212013823AB02120138FDAB80
:1009A30002120138D6AC02120138D1AD021201385D
:1009B300B0AE021201381CAF02120138E3AF0212CB
:1009C30001384EB002120138B5B002120138E0B05E
:1009D3000212013851B102120138E4B10212013896
:1009E3004DB20212013862B202120138AAB20212E7
:1009F3000138C3B20212013828B3021201382BB3F3
:100A030002120138008003120138288003120138D2
:100A13006680031201382481031201388F81031287
:100A23000138AB8103120138D381031201380382E9
:100A3300031201381282031201388C820312013827
:100A4300B282031201386AA20112013807A401120B
:100A53000138EDA501120138B7A601120138FEA62F
:100A63000112013845A70112013857A701120138B5
:100A730097A701120138C6A70112013812A8011263
:100A830001384AA80112013878A801120138C9A80F
:100A93000112013858A90112013846AC011201387C
:100AA30020AE011201385CAE01120138B6AF01125B
:100AB3000138FDAF0112013872B001120138C0B024
:100AC30001120138F7B001120138DEA10212013818
:100AD300FBA10212013895A70212013897A802124E
:100AE300013811AA02120138BFAA021201381F529B
:100AF3000012013868520012013895520012013871
:100B0300C85200120138D55200120138E1520012C6
:100B13000138F35200120138C85300120138265429
:100B2300001201385B5400120138F75500120138E6
:100B3300445600120138685600120138D556001287
:100B430001387A5700120138365800120138B55867
:100B530000120138795900120138885900120138FE
:100B6300095A00120138A85A00120138DA5A001241
:100B73000138755B00120138D35B001201380D5C3C
:100B8300001201388E5C00120138575D00120138E3
:100B9300005E00120138875E00120138DF5E00122A
:100BA3000138405F00120138695F001201381F608D
:100BB30000120138696100120138AC61001201387A
:100BC300C96100120138E861001201383362001272
:100BD3000138586200120138816200120138F06254
:100BE30000120138326300120138366400120138F2
:100BF300D064001201389C6500120138B5650012FB
:100C030001381CF6011201386FF6011201387BF628
:100C13000112013850F70112013877F70112013838
:100C2300B2F7011201381EF80112013852F801120D
:100C330001388BF801120138A3F801120138FCF8CE
:100C43000112013815F9011201385EF90112013858
:100C530071F9011201388BF901120138A1F901125E
:100C63000138BDFA01120138CEFB011201381BFD18
:100C73000112013800FE01120138EA7F0012013827
:100C830036E9011201386AE901120138D5EC011283
:100C930001381FEE01120138E9EE0112013873F039
:100CA300011201384EF10112013888F101120138A5
:100CB300ABF101120138EDF101120138F6F1011225
:100CC300013840F2011201384AF201120138F6F2FA
:100CD30001120138CAF3011201381EF4011201385E
:100CE30080F401120138D3F40112013802F5011224
:100CF300013841F501120138E76500120138416EF0
:100D030000120138476E00120138027400120138D4
:100D1300E87700120138B5F7021201382BF80212F6
:100D2300013841F8021201387EF802120138B6F890
:100D33000212013833F9021201386EF90212013836
:100D4300E9F90212013825FA021201382EFA0212C9
:100D530001383AFA0212013854FA0212013879FAC8
:100D6300021201388FFA02120138B8FA021201385E
:100D73001BFB0212013817D5021201382AD50212C1
:100D8300013844D5021201386DD502120138B0D5AD
:100D930002120138EFD5021201382DD602120138A2
:100DA30092D602120138A7D602120138B2D6021225
:100DB3000138BFD602120138D6D602120138E4D662
:100DC30002120138EFD602120138FBD602120138A3
:100DD3000ED70212013819D7021201383CD702127A
:100DE3000138E5D702120138F5D7021201380FD8BE
:100DF300021201382CD80212013848D802120138E5
:100E03006DD80212013877D8021201388BD802123A
:100E13000138AAD8021201380BD90212013811D9AC
:100E23000212013817D9021201381DD902120138F2
:100E330029D9021201385CD902120138BECE01123F
:100E4300013840CF01120138E9CF0112013831D105
:100E5300011201383FD30112013825D401120138A0
:100E63005AD4011201387CD40112013825D501125C
:100E73000138F5D6011201381ED70112013896D771
:100E830001120138C8D701120138D5D70112013830
:100E930020D80112013844D80112013895DA011221
:100EA30001389FDB01120138FBDB011201383BC023
:100EB300011201384CC10112013830C2011201384C
:100EC3003AC2011201385CC20112013868C2011230
:100ED30001380CC40112013839C4011201384FC55D
:100EE30001120138A4C501120138F3C601120138F9
:100EF300C8C70112013824C8011201388FC8011272
:100F03000138C4C80112013807C901120138D1CB15
:100F130001120138E9CB011201387ACC01120138F0
:100F230088CC01120138D5CC01120138E3CC01126F
:100F330001384FCD01120138CACD0112013821CE3B
:100F430001120138828C02120138A48C021201387A
:100F5300B58E021201387491021201389E92021268
:100F630001385C9302120138489402120138A68EAC
:100F730003120138CB8E03120138418F031201385B
:100F8300377800120138407800120138497800128E
:100F93000138217900120138D27A00120138027B1C
:100FA300001201382D7B001201385D7B00120138DD
:100FB300887B00120138BC7B00120138E87B0012E9
:100FC30001382B7C00120138567C001201389D7CBD
:100FD30000120138F27C00120138347D001201380E
:100FE3008E7D00120138B97D00120138087E00128F
:100FF3000138387E00120138637E00120138917E79
:1010030000120138B47E00120138A89B0312013884
:10101300D49B03120138019C031201380B9C031269
:1010230001381B9C031201384FB30212013859B324
:10103300021201389AB302120138E3B302120138E3
:101043001DB40212013873B40212013894B40212AF
:10105300013843B7021201384CB702120138A0B766
:1010630002120138C9B702120138D3B7021201388C
:1010730041B802120138D1B8021201382CB9021258
:1010830001385AB902120138E2B90212013821BA01
:101093000212013856BA0212013868BA0212013834
:1010A30087BA0212013890BA0212013857BB0212F2
:1010B3000138C39703120138B58C03120138EB8C46
:1010C300031201381F8D031201386C8E031201388D
:1010D300547F001201386A7F00120138747F0012B6
:1010E3000138BE7F00120138259C031201382BE31F
:1010F300021201383EE302120138FFE30212013803
:101103003EE4021201385BE40212013894E4021255
:101113000138E1E40212013813E5021201384AE50D
:101123000212013853E7021201384C9503120138B9
:101133006F95031201389E950312013836960312F8
:101143000138789603120138FA82031201381F839B
:1011530003120138498303120138DC9C031201385E
:101163003F3E001201381D4000120138BC410012FD
:101173000138674200120138E742001201386C431C
:1011830000120138954300120138704700120138EC
:10119300E74700120138FE480012013838490012AF
:1011A3000138794900120138C04A00120138164B40
:1011B300001201385F4B00120138CE4B0012013888
:1011C3003A4C001201386B4C00120138834C001268
:1011D30001389C4D00120138AC4D00120138624FAA
:1011E30000120138794F00120138AB4F0012013859
:1011F3004D5100120138E151001201386E9A031269
:1012030001387F9A03120138329D03120138719D10
:1012130003120138ECFF02120138BA9803120138A5
:10122300CA9803120138DF98031201389199031207
:101233000138C19603120138469703120138AA9761
:10124300031201381292031201383B920312013840
:10125300A19203120138C1920312013812930312AF
:1012630001386D9303120138A79303120138AA932F
:101273000312013800F00212013825F0021201387E
:1012830042F0021201385FF00212013884F00212B8
:101293000138A5F002120138CFF0021201388CF1A7
:1012A300021201380AF20212013831F20212013835
:1012B3003BF20212013860F302120138EE9D031271
:1012C3000138FE9D03120138019E03120138F87F95
:1012D300001201387B8A031201380B8C0312013888
:1012E3006C8C03120138B28C03120138B4930312CD
:1012F3000138069403120138799403120138E694F5
:10130300031201383488031201385E88031201384E
:101313002D8903120138098A0312013885BB021291
:10132300013851BC0212013892BC02120138CCBC04
:10133300021201382ABD021201387EBD02120138A1
:10134300DCBD0212013872BE021201387ABF0212EA
:10135300013804C102120138A2C10212013809C2C4
:10136300021201381CC20212013810C302120138E2
:1013730059C30212013848DC011201387ADF011225
:1013830001380BE10112013862E1011201387FE1FA
:1013930001120138FEE1011201387AE3011201382A
:1013A30049E401120138B6E701120138A0E801123D
:1013B3000138C7CA021201383BCD02120138E9CD08
:1013C30002120138FECE0212013870CF0212013828
:1013D3004BFB0212013890FB02120138ADFB0212E3
:1013E300013863FC02120138B6FC0212013888FD91
:1013F300021201389EFE021201387B9D031201384E
:10140300BDFF01120138A89D03120138D09D03E0EE
:1014130066701008A3E066700A08A3E0667004080B
:10142300A3E06622C3E7960809E7960809E796084A
:1014330009E79622C3E09608A3E09608A3E096087E
:10144300A3E09622C008C3E096F50808A3E09642FD
:101453000808A3E096420808A3E09645087001D364
:10146300D00822080808EAC0E0EBC0E086F0E7A451
:10147300FA180986F0E7A42AFA180986F0E7A42ADD
:10148300FA180986F0E7A42AFA1986F0E7A4FBE51F
:10149300F02AFA190886F0E7A42BFBE5F03AFA19CB
:1014A3000886F0E7A42BFBE5F03AFA18180986F052
:1014B300E7A4C5F02BFBE43AFA1908E7C5F0C6A484
:1014C30026F6E5F03BFBE43AFA1886F0E7A4F6E5E6
:1014D300F00826F6E43B08F6E43A08F6D0E0FBD041
:1014E300E0FA22E4CFC0E0E4CEC0E0E4CDC0E0E423
:1014F300CCC0E075F020C3E633F608E633F608E621
:1015030033F608E633F6181818EC33FCED33FDEE2A
:1015130033FEEF33FFC3EC9709ED9709EE9709EF1D
:1015230097191919400FFFEC97FC09ED97FD09EE88
:1015330097FE191906D5F0BEECF709EDF709EEF79A
:1015430009EFF7191919D0E0FCD0E0FDD0E0FED087
:10155300E0FF226016080808C6C313C618C613C6E0
:1015630018C613C618C613C6D5E0EA2270090808C0
:1015730008226016181818C6C333C608C633C6082F
:10158300C633C608C633C6D5E0EA22E627F60809FD
:10159300E637F60809E637F60809E637F622E026C5
:1015A300F608A3E036F608A3E036F608A3E036F61D
:1015B30022E026F008A3E036F008A3E036F008A303
:1015C300E036F022C3E697F60809E697F60809E63F
:1015D30097F60809E697F622C3E096F008A3E0968B
:1015E300F008A3E096F008A3E096F022E056F60890
:1015F300A3E056F608A3E056F608A3E056F622E069
:1016030056F008A3E056F008A3E056F008A3E0560E
:10161300F022E0F608A3E0F608A3E0F608A3E0F65C
:1016230022E6F008A3E6F008A3E6F008A3E6F0221A
:10163300E0FAA3E0FBA3E0FCA3E0FD22EAF0A3EBC6
:10164300F0A3ECF0A3EDF022CAC0E0E6F0A308DAC1
:10165300FAD0E0FA22CAC0E0E0A3C582CCC582C5B5
:1016630083CDC583F0A3C582CCC582C583CDC58395
:10167300DAE6D0E0CA22C3E498F8E499F91216BA7C
:101683008026C3E49AFAE49BFBE920E7E91216BA41
:10169300E498F8E499F922C3E498F8E499F9121666
:1016A300BAE498F8E499F9C3E49AFAE49BFB22EBD1
:1016B30020E7CFE920E7E0B90010BB0008E88AF093
:1016C30084F8AAF022E4FBC8FA22EB70227B10C84C
:1016D30033C8C933C9335007C39AC3DBF280069AB0
:1016E30050012ADBEAC833F4C8C933F4C9FA2275B6
:1016F300F008E4C833C8C933C933C99AC99B500435
:10170300C92AC93BD5F0ECFBC833F4C8E4C9FA22B3
:10171300600D08C6A2E713C618C613C6D5E0F322A8
:10172300600C08C6C313C618C613C6D5E0F42270EE
:101733000422600D18C6C333C608C633C6D5E0F409
:101743001822251810AF08F518400215198008F55E
:101753001840021519D2AF22C0D0251810AF08F5D2
:1017630018500205198008F51850020519D2AFD098
:10177300D0222518F58210AF08F5184002151980FC
:1017830008F51840021519D2AF851983222518F5DB
:1017930082E43519F58322E4732518C582C0E0E598
:1017A3001934FFC583C0E0E518C3958224F810AF50
:1017B300088583198582188008858319858218D244
:1017C300AFCEF0A3E520F0A37808E608F0A3DEFA95
:1017D300EFF0A3E58124FAF8E608F0A3E608F0A306
:1017E300E608F0A30808E608F0A3E608F0A31581CD
:1017F3001581D0E0FED0E0F8158115811581E8C090
:10180300E0EEC0E0222518C582C0E0E51934FFC52B
:1018130083C0E0E518C3958224F910AF08858319C6
:101823008582188008858319858218D2AFCEF0A3EC
:10183300E520F0A37808E608F0A3DEFAEFF0A3E5CD
:101843008124FBF8E608F0A3E608F0A30808E608FD
:10185300F0A3E608F0A315811581D0E0FED0E0F8EF
:1018630015811581E8C0E0EEC0E022851983851853
:1018730082E0A3FEE0A3F5207808E0A3F608DFFAF0
:10188300E0A3FFE0A3C0E0E0A3C0E0E0A3C0E0E08A
:10189300A3C0E0E0A3C0E010AF08858218858319D8
:1018A3008008858218858319D2AFD083D082020144
:1018B30035851983851882E0A3FEE0A3F520780817
:1018C300E0A3F608DFFAE0A3FFE0A3C0E0E0A3C0D3
:1018D300E0E0A3C0E0E0A3C0E010AF088582188574
:1018E30083198008858218858319D2AFD083D0826B
:1018F30022C0D02518C582C0E0E51934FFC583C0D6
:10190300E0E518C3958224F310AF08858319858217
:10191300188008858319858218D2AFC8F0A3E9F02F
:10192300A3EAF0A3EBF0A37908E709F0A3D8FAEC54
:10193300F0A3EDF0A3EEF0A3EFF0A3D0E0F0A3D07B
:10194300E0F0A3D0E0F0A3E520F0A3E5F0F0A322BC
:10195300851983851882E0C0E0A3E0F9A3E0FAA328
:10196300E0FBA37808E0F608A3DFFAE0FCA3E0FDC0
:10197300A3E0FEA3E0FFA3E0C0E0A3E0C0E0A3E098
:10198300F5D0A3E0F520A3E0A3F5F010AF0885831D
:10199300198582188008858319858218D2AFD08271
:1019A300D083D0E0F8D0E032740480067402800261
:1019B3007401C0E0F404121775D0E012164B2274C0
:1019C30004800474028000CCC0E0EDC0E0E518C3DD
:1019D3009CCCAD1950011D10AF068C188D198006D3
:1019E3008C188D19D2AF121658D0E0FDD0E0FC222E
:1019F300D083D082E9C0E0E493A3C386F0C5F09519
:101A0300F0F908E493A386F0C5F095F0700BE49326
:101A1300A3C3994005E9048002A3E475F002A42559
:101A230082F582E5F03583F583D0E0F9E493A3C032
:101A3300E0E493C0E022D083D082ECC0E0EDC0E0CC
:101A4300E493A3FCE493A3FDED4C600D121A85EC23
:101A530024FFFCED34FFFD80EFE493A3FCE493A3A8
:101A6300FDED4C600D121AC4EC24FFFCED34FFFDB8
:101A730080EFD0E0FDD0E0FCE493A3C0E0E493C0AA
:101A8300E022C0E0C3E49396087401939618400FD4
:101A9300E49366700808740193661870007019A3C4
:101AA300A3C3E49396087401939618A3A3400DD09F
:101AB300E0D0E0D0E0021A75A3A3A3A3A3A3D0E0D0
:101AC30022C0E0C0F088F0E49366700808740193C4
:101AD30066187000A8F0A3A3700BD0F0D0E0D0E09C
:0C1AE300D0E0021A75A3A3D0F0D0E022DE
:101AF00074F5121808EAFEEBFFEE2434F8EF340018
:101B0000F988088909EE2435121C28F8EE243712CA
:101B10001C28F50AEC850AF0A4FCAAF0850AF0ED71
:101B2000A42AFDE82CF8E43DF97A257B001216BAC8
:101B3000EA850882850983F05407F87401B8000229
:101B40008004C333D8FCC0E0E0131313541FF8EE35
:101B500028F8EF3400F9E8245DF582E93400F583D4
:101B6000D0E0F8E0586008850882850983801DEE82
:101B70002436121C28F5F0EA84A8F0EE28F8EF3499
:101B800000F9E82438F582E93400F583E0F97F04B0
:101B90000218B474F5121808EAFEEBFFEE243412B2
:101BA0001C28C0E0EE2435F582EF3400F583D0E048
:101BB000F08E828F83A3A3A3A3A3E0FAA3E0FB8EFE
:101BC000828F83A3A3A3A3A3A3A3E0FCA3E0FDECC4
:101BD000C39AF50AED9BF50BEE2480F508EF34006F
:101BE000F509850882F583E06401702BEE2481F508
:101BF00082EF3400F5831219C6121C3174021217D9
:101C00005BE960137CFD7D04EEFAEFFB120BA88507
:101C10000882850983E4F0AC0AAD0BEEFAEFFB1203
:101C20001AF01223EA021B8EF582EF3400F583E0EE
:101C300022C082C083851882851983E0F8A3E0F969
:101C4000C3EA9CEB9D5012C3EC98ED994019C3EA8E
:101C500098EB99501279018010C3EA98EB9940F5FE
:101C6000C3EC98ED9950EE7900D083D08222EAC37C
:101C70009CFAEB9DFB2200008521878522C622C0AD
:101C8000E074EF1218F4759B00906182E0A2E640C8
:101C900003021D40E591A2E64003021D407591BF7D
:101CA0009003C2E064057008120D46120D528003C5
:101CB000120D4C752100120DBEE99003C3F079009E
:101CC000120DB2120B127A017B009003C1E0F912DF
:101CD0001088907803E064426003021D8990055FDC
:101CE000E014F06003021D89C2AF121CED00782AD7
:101CF000D0E0F618D0E0F6E59F5407F97005909211
:101D000083800390927F7808121615E9C4C0E078AA
:101D100029E65508F50808E65509F509740B780811
:101D2000121723D0E02508F8906270E0A2E740F88F
:101D3000E8C333906272F0906270E0D2E0F08049C4
:101D4000E0A2E55024E591A2E5501E7591DF9003D5
:101D5000C2E0640D70139003E4E004F064287002A4
:101D6000E4F07A00E0F9120E30906181E0A2E350D5
:101D700009E5E9A2E3500375E9F7A3E0A2E75009FA
:101D8000E591A2E7500375917F7F04021953C0E0EB
:101D9000C0D0C082C083906183E0A2E05009E5BF5B
:101DA000A2E0500375BFFEE0A2E15009E5BFA2E149
:101DB000500375BFFDE0A2E25009E5BFA2E2500367
:101DC00075BFFBE0A2E35009E5BFA2E3500375BF76
:101DD000F7E0A2E45009E5BFA2E4500375BFEFE0CD
:101DE000A2E55009E5BFA2E5500375BFDFE0A2E61A
:101DF0005009E5BFA2E6500375BFBFD083D082D0A3
:101E0000D0D0E032C0E074F21218F4E5A7A2E4509A
:101E10000FE5A1A2E4500953A7EF75A1EF121E58D8
:101E2000E5A7A2E5500CE5A1A2E5500653A7DF7592
:101E3000A1DFE5A7A2E15009E5A1A2E1500375A148
:101E4000FDE5A7A2E2500CE5A1A2E2500653A7FBD4
:101E500075A1FB7F0102195374F81218087521014E
:101E60009003C2E0640670077A007B00120D2EA278
:101E7000AFE433FED2AF9003C8E0640170187A205B
:101E80007B009003C1E0F91211127A207B009003CD
:101E9000C1E0F912108E906182E0D2E6F090055E0A
:101EA000E0602185C62280169003C7E064017008B7
:101EB000E5C654F84405F5C653BEFC121C787401FF
:101EC000652160E4EEA2E092AF7F010218B4000049
:101ED0008E238F2485822885832785188285198300
:101EE000E0CEA3E0CF852882852783EBC9EAC8ED41
:101EF000CBECCA75F010C3E833C8E933C9EA33CA7A
:101F0000EB33CBC3EA9EF526EB9FF525B35004AB2C
:101F100025AA26EC33CCED33CDD5F0DAAE23AF24B1
:101F20002274E912180874FA121745EAFEEBFF8CC6
:101F3000088D099003C2E024F7C3940550069092DF
:101F400037022048120CAA8A0A8B0BEA450B700351
:101F5000022045120D648A0C8B0D120D64EA650C8B
:101F60007003EB650D60ECEEFCEFFD8518828519C2
:101F700083AA82AB83120D6A850A82850B83A3A391
:101F8000780C121615909257780C1215EF8518825E
:101F9000851983781412161590925778141215EF3C
:101FA000780C7914121427501F780C79141215C765
:101FB00090921F780C1214474047850C10850D1124
:101FC000850E12850F138041851410851511851615
:101FD000128517137810790C1215C790921F78107C
:101FE000121447501C7510007511007512007513FE
:101FF00001781079141215C77810790C12158E809B
:102000000890923778101216157409781012156F0F
:102010009092BB780C1216157810790C1214E69079
:1020200003C2E06408600AE064066005E0640570CD
:102030001C9092537810121447501290921B7810F3
:102040001215A1800890923B78101216158508820F
:102050008509837810121624740612175B7F10020C
:1020600018B474F7121808120D7C90055CE0640136
:102070007010906245E4F0A3F053F4F343FE0C5368
:1020800090F3120D1CE5C654804449F5C6E59E54F4
:102090007F644970F8906185740FF090055AE0F400
:1020A0007002A3E0602C75080175090090055AE0E4
:1020B0007808121732E508F4FAA3E0600814600A01
:1020C00014600C800DEA52808008EA52908003EA86
:1020D00052A079007F020218B474F7121808E9FEC2
:1020E000EAFF74016E700C7A807B009003C1E0F906
:1020F00012108890245CE493F46008E493F9120AC7
:10210000F4800953C680E59E547F70FA120D229028
:10211000055CE064017003120B2A90055AE0F4702C
:1021200002A3E0602A75080175090090055AE0785D
:1021300008121732AA08A3E0600814600A14600CA1
:10214000800DEA42808008EA42908003EA42A012B1
:102150000CAA8A088B09A808A909E8496017E5E1D3
:1021600070FCE82414F582E93400F583E0F874FF8C
:1021700068600288E174016F700A7A019003C1E01F
:10218000F91210DC0220D474F11218088A088B09A5
:102190008C0A8D0B740F121790780C1216159092F2
:1021A0005778081215EF909257780C1215EF7808AF
:1021B000790C12142750157808790C1215C79092D3
:1021C0001F7808121447401579018013780C79089C
:1021D0001215C790921F780C12144740EB79007FBC
:1021E000080218B474ED1218088A088B098C0A8D3D
:1021F0000B7413121790780C1216159092577808DA
:102200001215EF909257780C1215EF780C7908128E
:10221000142740117808790C1215C7AA08AB09AC2D
:102220000AAD0B8022751000751100751200751330
:10223000017810790C1215C77810790812158EAA3A
:1022400010AB11AC12AD137F0C0218B490925778FA
:10225000081216158A828B8378081216027F0402F0
:1022600018B474F51218088C828D8378081216152C
:102270008A828B8378081215DB1222B6C3E098F0AD
:10228000A3E0991222A8401E909297780812161582
:102290008A828B8378081215B48E828F83E0242083
:1022A000F0A3E0344EF080A4F08E828F83C3E094DC
:1022B00020A3E0944E22EA2404F8EB3400F9E8FE6F
:1022C000E9FF8C828D83A3A3A3A3E0F8A3E0F98E9A
:1022D000828F832274F5121808E9FE900514E0FA43
:1022E000A3E0FBEEC333F8E433F9741128F58274EC
:1022F0009139F583E02AF508A3E03BF50978081247
:1023000019AF909293121633121ED0740212175BFB
:102310008A088B098C0A8D0B74107808121556AA3E
:1023200008AB097F040218B474F11218088A0C8BE8
:102330000D8C0E8D0F740F121790E0FAA3E0FB7452
:1023400011121790E0F508A3E0F509741312179025
:10235000E0FEA3E0FF78081219AFEA2401F508EBCC
:102360003400F509E4F50AF50B780C7908121466C7
:1023700090925B7808121615780C7908121466AAE8
:102380000CAB0DAC0EAD0F121ED0740212175B8B8E
:1023900009EA450960047A0180027A00EC2AFCED22
:1023A0003400FDECF8EDF97A717B021216BA880858
:1023B0008909E4F50AF50B8E828F837808121624BA
:1023C000ECF8EDF97A717B021216BA8A088B09745F
:1023D0000578081217328E828F83A3A3A3A3E50882
:1023E000F0A3E509F07F080218B4C082C083E99029
:1023F0006000F0D083D08222C0E074F21218F4A200
:10240000AFE433FED2AFE589A2E150031212627548
:102410008900C2C5751A00EEA2E092AF7F010219D1
:1024200053C0E074F21218F4A2AFE433FED2AFE569
:102430008BA2E05003121262758B00C2E880D5C0F7
:10244000E0C0D0E8C0E0E5A8D2AFC2C7751A00A2CC
:0B245000E792AFD0E0F8D0D0D0E0322F
:10245C00FFFFFFFFFFFFFFFFC082C083E99009F27F
:10246C00F00226E874F712179CE99002E0F07C1851
:10247C007D037AFF7BFF12082A9002E174FFF0A320
:10248C00F0A3E4F0A3F079051207B29002E0E0F9B2
:10249C001206DA7A487B08120A0A0233F674F4122E
:1024AC00179C8A088B09EB548060309002E0E0F9AD
:1024BC001210708A0A8B0BAE0AAF0BEE4F60138EA4
:1024CC00828F83E064B070031207CAEEFAEFFB123E
:1024DC00105EAA08E5096480FB80047A007B000288
:1024EC0026B774F212179C74FC121745EAFEEBFF28
:1024FC0074121217901238DDEE4F7003022591748E
:10250C0002121790EEF0A3EF1228F2ECF0A3ED12EA
:10251C0028F2AA82AB831206D4E9F50A706AE508A0
:10252C00450960648E828F831238C3EE4F60567AF1
:10253C00067B001210C48A0C8B0DA80CA90DE8495F
:10254C007005750A13804188828983E412259EEEFA
:10255C00F0A3EF1238EEE508F0A3E509F09002E6DF
:10256C001226259002E670051233A0801B12338EC2
:10257C008003EAFCEBFD8C828D8312262570F38C94
:10258C00828D8380E3750A02A90A740412175B0218
:10259C003ADDF0A3123894A32274F212179C890A24
:1025AC00E975F017A4FEAFF09002E5E4F09002E3B9
:1025BC00122625600A1210CA9002E3E4F0A3F0EE92
:1025CC00FAEFFB1210C48A088B09EA4509602FEE5A
:1025DC00FCEFFD79001210469002E3E508F0A3E54C
:1025EC0009F07B00800812260FE4F0A3F00BEBC37C
:1025FC00950A40F2E50A9002E5F079008002791321
:10260C00023ADDEB75F017A4F8A9F09002E3E0288C
:10261C00FAA3E0398A82F58322123032EA4B227413
:10262C00F412179C740C1217901238B8FEE9FF754F
:10263C000800750900800CE5082401F508E509344B
:10264C0000F509C3E5089CE5099D503285080A850B
:10265C00090B7403780A121732EA250AF8EB350BCA
:10266C00F988828983A3A3A3A3A3A3123475EE656F
:10267C000A7003EF650B70BFE8FAE9FB80047A007F
:10268C007B00802774F412179C7900EAA2E0501B9F
:10269C007508F475099178081219AF7C047D007ADD
:1026AC00F47B091207AC740212175B7F0402186EDC
:1026BC00C082C0839002E61226EF601C8882898358
:1026CC00A3A3E06A7003A3E06B8882898370E8A3FC
:1026DC00A3A3A312302E80047A007B00D083D08277
:1026EC00020135123BC3E8492274EE12179C74FCAC
:1026FC00121745EAFEEBFF851882851983E4F0A3D7
:10270C00F0EE2402123380EE240512389BEE2404E2
:10271C00F50EEF122CA7E024FE603924FC60462451
:10272C00FE605224FE605E24FE700302280824FE24
:10273C00700302286C24FE700302287B24FE7003B5
:10274C0002288A24FC700302289924FE70030228B4
:10275C00A80228E59002FF7417F0A3E41228FA12DD
:10276C0004520228E5851882851983AC82AD831248
:10277C0007D00228B5851882851983AC82AD8312E7
:10278C0007D60228B5850C08850D0974021217901E
:10279C00AC82AD8385088285098312302E1206F82F
:1027AC008A0C8B0DAC0CAD0DEC4D603BE4F50CF5CF
:1027BC000D780C1219AF750CFF750D02780C1219EF
:1027CC00AF750C00750D03780C1219AF7408121745
:1027DC00901219C6123D3F12175BE9F50C700B12E3
:1027EC00302412046A800F750C01850882850983D8
:1027FC001228E81233A0850C080228B874021217AC
:10280C0090AC82AD83850C82850D83122DF9603CD2
:10281C00850C82850D83A3A31219C67510FF751143
:10282C000278101219AF7510007511037810121977
:10283C00AF74081217901219C6123D3F12175BE9BC
:10284C00F509700B123024120470800F7509018584
:10285C000C82850D831228E81233A0850908804C60
:10286C00851882851983AC82AD831207DC803A858A
:10287C001882851983AC82AD831207E2802B8518F0
:10288C0082851983AC82AD831207E8801C8518827F
:10289C00851983AC82AD831207EE800D8518828575
:1028AC001983AC82AD831207F4E9F508E5086029B9
:1028BC008E828F83A3E06414601F850E82850F8344
:1028CC00E09002FF1228F2123BBF9003001233A0DB
:1028DC00E508A31228FA12044C02328F123BC3856E
:1028EC00188285198322F085188285198322F07C41
:1028FC00FF7D02850A82850B831230322274EE1220
:10290C00179C74FC1217458A0A8B0B8C0E8D0FEAE0
:10291C002405F508EB3400F5097C157D0079007A67
:10292C00FF7B02121046E5082402F50CE50912386B
:10293C009E851882851983858210858311781012E3
:10294C0019AF850882850983A3A3A3A3122DF012C6
:10295C0019AFE5082405F510E5093400F5117810D8
:10296C001219AF850C82850D831231451206F27453
:10297C000612175B8A108B11AE10AF11E50A2402F8
:10298C00F50AE50B123383EE4F7003022AC780174A
:10299C00740212179012302E88828983EAF0A3EB0E
:1029AC00F09002FFE004F09002FFE0C394054003B6
:1029BC00022AC7E4F510F51178101219AF7510E85A
:1029CC0075110278101219AF7510E9751102781093
:1029DC001219AF74061217901219C67910EEFCEF8B
:1029EC00FD123D4112175BE9705E850882850983F3
:1029FC00A3A3A3A3A3A3A3E0F89002E8E068704804
:102A0C00122DF01219AF7CE97D02E5082408FAE5D5
:102A1C00093400FB121040740212175BE960298E16
:102A2C00828F83A3A3A3A312302E9002FFE0F51094
:102A3C007402781012173274002510F58274033565
:102A4C0011F583EAF0A3EBF0740212179085821053
:102A5C0085831178101219AF74021217901219C6CF
:102A6C00850C82850D8312305412175B8A108B11E2
:102A7C00AE10AF119002FFE0F510751100740278E2
:102A8C001012173274FF2510F874023511F9888270
:102A9C008983A31226257003022993E824030808CE
:102AAC0008E93400F9EE4F600302299C888289837F
:102ABC0074FFF0A3F09002FFE004F09002FFE060DE
:102ACC000A12302412045E7900800B850882850975
:102ADC0083123397790A02328F74EA12179C74FEB0
:102AEC001217458C128D13EA2405F50CEB123D29B7
:102AFC001238C7750800750900EA2402F510EB348A
:102B0C0000F51185188285198385820A85830B78D7
:102B1C000A1219AF850C82850D83A3A3A3A3122CD3
:102B2C00BD1219AFE50C2405F50AE50D12338378B7
:102B3C000A1219AF850C82850D83122CC11206F274
:102B4C00740612175B8A0A8B0BEA450B7003022C76
:102B5C0062EA2404F50EEB122CA71238C78A828B7A
:102B6C0083A3A3A3E0F9851082851183123038600A
:102B7C0003022C62E4F514F51578141219AF7514D0
:102B8C00E875150278141219AF7514E975150278E9
:102B9C00141219AF74061217901219C67913AC0AD5
:102BAC00AD0B851082851183123D4712175BE9F539
:102BBC00096003022C629002E8E0F8E5087009E075
:102BCC002402900300F08014900300E0FCE824023F
:102BDC00FAE43400FBEA6C7001EB707E850882AA83
:102BEC0082122DE79414122DDF506B850E82850F07
:102BFC0083E0C0E074012A122C9ED0E0F005088519
:102C0C000E82850F83A3E0C0E085080A7401250AB3
:102C1C00122C9ED0E0F005089002E8122CBD12197F
:102C2C00AF7CE97D0285080A7401250A122CB112C9
:102C3C00175B9002E8E02508F50874FF6E700374CA
:102C4C00FF6F6012EE24010EEF3400FFE508C39411
:102C5C00145003022B0FE5086013123042851082CA
:102C6C0085118312302E12046479008014E50970EA
:102C7C000375090A851282851383EEF0A3EFF0A980
:102C8C0009740212175B7F0E02186E85080C740112
:102C9C00250CF58274033400F583223400F50F857E
:102CAC000E82F58322FA74033400FB12102E740288
:102CBC00221238FD22A3A3122CC72212338EFDEE52
:102CCC00FAEFFB2274EE12179C74FE1217458C0E51
:102CDC008D0FEA2405F50CEB12389E750B00900253
:102CEC00FFE4F0F50AEA2402F508EB3400F509805C
:102CFC00449002FFE0FA9002E8E0F8122DE79417F6
:102D0C00122DDF400D9002FFE0F87416C39890026C
:102D1C00E8F0122DF01219AF7CE97D0274002AFA4A
:102D2C007403122CB412175B9002E8E0F89002FFC7
:102D3C00E028F0050AE50C2416F582E50D122CA20C
:102D4C00E0F8E50AC39850749002FFE0C394165063
:102D5C006BE50AC333F8E433F9E50C28FEE50D39CD
:102D6C00FF851882851983AC82AD838E828F831286
:102D7C002DF97008750B011233938050E4F510F5A2
:102D8C001178101219AF7510E8751102781012191C
:102D9C00AF7510E975110278101219AF740612177D
:102DAC00901219C67916850882850983123D47123F
:102DBC00175BE9F50B7003022CFD80BB7CFF7D02D9
:102DCC0085088285098312302E120476A90B7402B1
:102DDC00023291E99400C365D03322EA28F8E43436
:102DEC0000F9E822E0F510751100781022123286F5
:102DFC008A108B11AC10AD11EC4D2274EA12179C99
:102E0C0074FC1217458A0C8B0D8C128D13EA240559
:102E1C00F50AEB123383750800750900E50A2402E4
:102E2C00F510E50B3400F511740212179085820E23
:102E3C0085830F780E1219AF850A82850B83A3A3A5
:102E4C00A3A31238A31219AFE50A2405F50EE50B5E
:102E5C003400F50F780E1219AF851082851183128C
:102E6C0033891230281206F2740612175B8A0E8B05
:102E7C000FAE0EAF0FE50C2402F50EE50D3400F588
:102E8C000F80388882898374FFF00508122C9774A0
:102E9C00FFF005089002E8E0F50C750D00780C12B7
:102EAC0019AF7CE97D0285080C7401250C122CB13C
:102EBC0012175B9002E8E02508F508EE4F60278EAC
:102ECC00828F83A3A3A3E0F9850E82850F83123032
:102EDC0038EE240412389BE96027850C82850D831B
:102EEC0012301A1233A0E50870030230001230427F
:102EFC00850E82850F8312302E12047C79000230ED
:102F0C0015E4F514F51578141219AF7514E8751548
:102F1C000278141219AF7514E97515027814121988
:102F2C00AF74081217901219C67911EEFCEFFD85DB
:102F3C000E82850F83123D4712175BE9F509709AD3
:102F4C00850882AA82EA9002E87009E024049003C2
:102F5C0000F08025E0F8900300E0F514E82404FC70
:102F6C00E43400FDEC65147001ED7081122DE794D2
:102F7C0012122DDF4003022EF9850C82850D83E0A1
:102F8C00C0E074012A122C9ED0E0F00508850C825A
:102F9C00850D83A3E0C0E0122C97D0E012305D8544
:102FAC00820C85830D780C1219AF740412179012D1
:102FBC0019C685108285118312305412175B8A0C46
:102FCC008B0DAE0CAF0D85080C7401250CF8740339
:102FDC003400F9EE4F7003022E8F85188285198309
:102FEC00E08882898312305DA3E0C0E0122C97D078
:102FFC00E0022E9DE509700375090A850A82850B8E
:10300C008312301A1233A0A9097404022C8F123BBC
:10301C00C3851282851383227CFF7D02850A8285FB
:10302C000B8312303222E0FAA3E0FB221230321270
:10303C0006E0E9F50922900300E0F5F0E50884903C
:10304C0002FFF07CFF7D0222122CC71206FE7404D4
:10305C0022F005088518828519832274EC12179CBE
:10306C0074FE1217458A088B098C0E8D0FEA240505
:10307C00FEEB3400FF123270EE241812389BEA4536
:10308C000B700302311312325950291231388A1045
:10309C008B11EA4511606B7912AC0AAD0B85088275
:1030AC0085098312302E85108285118312179AE9B7
:1030BC00F50A7058E4F50AF50B780A1219AF8E82EE
:1030CC008F83A3A3E0F50A780A1219AFEE2403123A
:1030DC003380780A1219AF8E828F83123145120811
:1030EC0018740612175BE9F50A7021850C82850DA0
:1030FC0083E0701F85088285098312302E120482AA
:10310C008011750A0E8009750A018004E50A6003B6
:10311C00123393850C82850D83E060047900800264
:10312C00A90A740212175B7F0C02186E851882852F
:10313C0019831230321208062212338EFD85088252
:10314C008509831230322274EE12179C74FE12170A
:10315C00458A088B098C0C8D0DEA2405FEEB340096
:10316C00FF750E00123270EA450B700302323712F3
:10317C003259502C1231388A0E8B0FEA450F604AA7
:10318C007912AC0AAD0B85088285098312302E8525
:10319C000E82850F8312179AE9F50E600302323AFC
:1031AC00850882850983123475AA0AFB12324B708A
:1031BC00147AFF7BFF12324B606C88828983E50A9C
:1031CC00F0A3E50BF0750A008007750E0E805F0505
:1031DC000A9002E5E0FAE50AC39A504AE50A75F04E
:1031EC0017A4FAABF088828983A3A3E02AFAA3E0A0
:1031FC003BFB8A828B83123389EC4D70D2750A1794
:10320C00750B00780A1219AFEEFCEFFD12102E743C
:10321C000212175BEEFCEFFD8508828509831230E4
:10322C002E1204888014750E098003750E01123B52
:10323C00BB850C82850D831233A0A90E022DDA12E8
:10324C0007FA8A108B11A810A911E84922E5082465
:10325C0002F508E5093400F5098A828B83A3A3A340
:10326C00E0A2E522851882851983AC82AD838E821B
:10327C008F831232868A0A8B0B22E0FAA3E0FB12B0
:10328C0006F822740412175B7F0A02186E74EC1293
:10329C00179C8C108D11EA2405F50CEB12389E75D9
:1032AC000F00EA2402F50AEB123383850A82F583B8
:1032BC0012302E123DCD7003023375750E008071E5
:1032CC00850C82850D83E06401704F8E828F83A301
:1032DC00A31219C68E828F83A3A3A3A3E0F5127544
:1032EC00130078121219AFEE2405F512EF3400F525
:1032FC001378121219AF123028120818740612170C
:10330C005BE9F50F6014850C82850D83E4F0123BAC
:10331C00BB8510828511831233A07C177D00790048
:10332C00EEFAEFFB1210468E828F83E4F0A3F005C9
:10333C000E9002E5E0F8E50EC398501EE50E75F010
:10334C0017A4F8A9F0850882850983A3A3123D333D
:10335C00123389EC4D60030232CC850882850983D7
:10336C0074FFF0A3F0E50F700612302812048EA93A
:10337C000F023133F50AEF3400F50B22A312338E12
:10338C00FD22E0FCA3E0228E828F83123BC3850ECC
:10339C0082850F83E8F0A3E9F022C082C0839002FB
:1033AC00E1E06A7003A3E06B70067AE17B028004B3
:1033BC007A007B000226E874F712179C7F00EF75E9
:1033CC00F003A4F8A9F0EC28F8ED39F98882898388
:1033DC00E06A7003A3E06B7006E8FAE9FB800B0F60
:1033EC00EFC3940240D87A007B007F0102186E7400
:1033FC00F612179C1239AC70067A007B008007A37A
:10340C00A3A3A312302E023A6D74F212179CE9FE9C
:10341C00740E12179012347574101217901238DD46
:10342C008C828D83E06402703BA3123BBF8882893F
:10343C0083E0F50CA3E0F9A80C74026870037429FE
:10344C00697021750C02750D00780C1219AF780893
:10345C001219AF780A1219AFEEF912083C74061261
:10346C00175B80027901023ADDE0F50AA3E0F50B67
:10347C002274E812179C74FB121745E98518828593
:10348C001983F08A168B178C0E8D0F741F121790E0
:10349C001238DD74211217901234757423121790A0
:1034AC001238C77510008C828D83A3A3A3E0A2E40D
:1034BC00502A741D12179012313E8A828B83E5823A
:1034CC0045837003023589790AAC0EAD0FAA16AB91
:1034DC001712179AE9F510600302358C850E828558
:1034EC000F83E064026003023842A3123BBF8508DD
:1034FC0082850983A3858212858313E50E2406F544
:10350C000CE50F12389E88828983E0FAA3E0F9EA71
:10351C002400F514E439F5157814121A3901000059
:10352C002801285135070002282836032898350031
:10353C0029523701297A37022921370329523704B6
:10354C0029E3374238EE4F703E850C82850D83128D
:10355C0038B8FAE9FB8A828B83E0850A82850B8373
:10356C001238F41219AF8A828B83A312338EFDAA00
:10357C0008AB0912102E740212175B800375100E23
:10358C00A9107405023D2175100B80F4EE4F70F7F5
:10359C00850A82850B837401F01238CD85088285EB
:1035AC000983F07C007D00850E82850F83A3A3A385
:1035BC00A3E02401FAA3E03400FB1206F8EA4B6006
:1035CC00418A828B83E02402F8850A82850B83E092
:1035DC0028F0EA2404F8EB3400F988828983E0852A
:1035EC0012828513831239061238F41219AF8A82AB
:1035FC008B83123388E5082403FAE5093400FB02B7
:10360C00357F850A82850B83E02404F07C047D00E1
:10361C007900AA12AB1312104602358CEE4F6003E0
:10362C000235931238CDFEA3E0FF850A82850B8309
:10363C007404F0EE850882850983F0EF851282858B
:10364C001383F07403121790AC82AD83EEFAEFFB88
:10365C0012399A70030236FE8A828B83A3A3123826
:10366C00C3740112179085820E85830F780E121980
:10367C00AF74051217901219C67CFF7DFF1206FE5F
:10368C00740412175B8B0FEA450F7033850C82851F
:10369C000D831238A31219AF850C82850D83A312EA
:1036AC0019C67C027D007AD97B9212052A74041209
:1036BC00175BE9700A740112179074FFF0A3F08E77
:1036CC00828F83E064027034750C02750D00780CE7
:1036DC001219AF8E828F83123388E5082404FAE521
:1036EC0009122CB412175B850A82850B83E0240225
:1036FC0080097401121790EEF0A3EFF07401121709
:10370C00901238B4F07401121790A31238ACA3A322
:10371C00A3F002358CEE4F6003023593850C828545
:10372C000D83123389AA16AB17120830850A8285CD
:10373C000B837402F0EA850882850983F085128276
:10374C00851383EB80CBEE4F60030235931238CD9B
:10375C00F8A3E0F9850A82850B837402F0E88508EA
:10376C0082850983F0E985128285138380A3850CF9
:10377C0082850D8312302E121028EAFC8C82A882CE
:10378C00C39EE49F404BE86E7001EF70047C008098
:10379C001F851882851983E0FAEE2AFAEF3400FBB4
:1037AC00C3EA98EB94005003E08004EECCC39CFC7D
:1037BC00EC850A82850B83F08C0A750B00780A1253
:1037CC0019AF850C82850D83E02EFCA3E03F0235FA
:1037DC007A75100702358CEE4F6003023593850C19
:1037EC0082850D83123BBF850A82850B837407F09B
:1037FC00888289831238AC123894E0851282851342
:10380C0083F0E82402FAE93400FB8A828B831238B5
:10381C00AC1238E51238B4A31238EE1238BDF0E809
:10382C002405F8E93400F9888289831238BDA31283
:10383C003906A302371A741D1217901239A570039A
:10384C00023589123BBF880C890DE8450D700302C7
:10385C0035898E108F1178101219AF780A1219AFA2
:10386C0078081219AF7406121790E0F9AC0EAD0F70
:10387C00AA16AB17850C82850D8312179A74061243
:10388C00175BE9F51002358CF088828983A322F549
:10389C000CEF3400F50D22E0F50E750F00780E22BA
:1038AC00E08508828509832212390D22123BC3E878
:1038BC002212390DA3A322A3A3A3A3E0FEA3E0FF2E
:1038CC0022850C82850D83E0F8A3E0F5838882E0E5
:1038DC0022E0F508A3E0F50922A3A3F08A828B83EA
:1038EC00A3221225A0A3A322F08A828B831238FD77
:1038FC0022E0F50A750B00780A2212389412390D61
:10390C0022E0850882850983A3A32274EE12179CFA
:10391C0074FE1217458A0A8B0BECFAEDFB74141229
:10392C001790E0F510A3E0F5117416121790E0FE55
:10393C007418121790E0F50EA3E0F50F8518828528
:10394C001983AC82AD8312399A603E851882851931
:10395C00831239A5602FA3A31238DDE50845096051
:10396C0024780E1219AF78101219AFEEF9AC0CAD19
:10397C000DAA0AAB0B85088285098312179A740469
:10398C0012175B8006790E80027901022DDA12067D
:10399C00F88A0C8B0DEA450D221230321239AC220A
:1039AC001207C48A828B83E58245832274F6121730
:1039BC009C74FE121745740C1217901238B88518A7
:1039CC0082851983F07401121790E9F0E4F508F57B
:1039DC000978081219AF75080278081219AF740427
:1039EC0012179085820885830978081219AF12087E
:1039FC0018740612175B740212175B806474F7124A
:103A0C00179CEAFEEBFF89087C187D03120830EA4C
:103A1C005402600BA908EEFAEFFB1206EC80027957
:103A2C00010233F674F612179C74FF6A700374FF6C
:103A3C006B701C7B00EB75F003A4F8A9F0EC28F874
:103A4C00ED39F9123A720BEBC39402501480E61262
:103A5C0008008A088B09A808A909E8496003123AEA
:103A6C00727F0202186E8882898374FF12259EE48D
:103A7C00F02274F612179C1208008A828B83E5825E
:103A8C0045836006A3A3E0FA80027A007B0080D114
:103A9C0074F212179C8A088B09ECFEEDFF740E125F
:103AAC001790E0F50A123AE2701CEEFCEFFD7AFF7B
:103ABC007BFF123AE270047911801688828983E5C3
:103ACC0008F0A3E509F088828983A3A3E50AF079BD
:103ADC00007F0602186E1208008A0C8B0DA80CA928
:103AEC000DE8492274EE12179CEAFEEBFF8C088D50
:103AFC0009890C7412121790123BBF741412179090
:103B0C00123389741612179012302E750D00EC4D6D
:103B1C006003023BB37402650C6003023BAE888207
:103B2C00898312338EF9EC2400F50EE439F50FEA93
:103B3C00F4F8EBF4F9EC58F8E50F59F9E849705D35
:103B4C00E5082406F8E5093400F9880A890B88820F
:103B5C00F583122CC31208308A108B11E50E6510F8
:103B6C007004E50F65116042780E1219AF850A8258
:103B7C00850B83122CC3120836740212175BE9F5FD
:103B8C000D7027780E1219AF850882850983A3A3BF
:103B9C00122CC112084E740212175B800D750D8029
:103BAC008008750D0D8003750D0BA90D0232948ED6
:103BBC00828F83123BC322E0F8A3E0F92274E8124F
:103BCC00179C74E7121745851882851983EAF0A3B0
:103BDC00EBF08C168D17890E7431121790E0F512DC
:103BEC00A3E0F5137433121790E0F514A3E0F51568
:103BFC007435121790E0F50F750800750900E5098A
:103C0C0075F003A4F8A9F0851882851983123D3349
:103C1C00E0F47003A3E0F47003023D11EE2402F50E
:103C2C000CEF123D29E07003023D1185160A851731
:103C3C000B780A1219AFAC14AD15AA12AB131207FC
:103C4C00B8740212175B8A0A8B0BEA450B700302DD
:103C5C003D11E4F510F51178101219AF7406121716
:103C6C009085821085831178101219AF7409121780
:103C7C009085821085831178101219AF8512828578
:103C8C001383A3A3A3A31219C67914AC0AAD0B8E8C
:103C9C00828F83123D4712175BE97069850A828512
:103CAC000B83A3A3A3A3123BBF740212179012336E
:103CBC00A0850C82850D83E0A2E05018A90E740239
:103CCC00121790AC82AD838E828F8312302E120726
:103CDC0010E94208850C82850D83E0A2E15026E5AF
:103CEC000FF50A780A1219B3A90E7403121790ACC7
:103CFC0082AD838E828F8312302E12070A740112CA
:103D0C00175BE942080509E509C394025003023C1C
:103D1C000AA908741912175B7F1002186E3400F58B
:103D2C000D850C82F58322E028FEA3E039FF8E82FC
:103D3C008F83227916850A82850B83123032120802
:103D4C001274082274F212179CEAFEEBFF890B74B2
:103D5C0001650B600E7402650B70637901120A2801
:103D6C00E9705BEEFAEFFB123DCD6047750A0080FF
:103D7C000B7C177D007900121046050A9002E5E0D5
:103D8C00F8E50AC3985021E50A75F017A4F8A9F0D4
:103D9C00850882850983A3A3E028FAA3E039FB8A6E
:103DAC00828B831226EF70C985088285098374FF84
:103DBC00F0A3F07C187D03EEFAEFFB12082A023A0E
:103DCC00DD1207FA8A088B09EA45092274F21217E8
:103DDC009C8A088B09ECFEEDFF740E1217901234BE
:103DEC00759009F2E0F4603D7A097B00121058EAF4
:103DFC004B60328A828B8374B1F0A3E41238E7A350
:103E0C001238E5A3E508F0A3E509123E34EEF0A361
:103E1C00EF123E34A3A3E50AF0A3E50BF09009F2F0
:103E2C00E0F9121064023ADDF08A828B83A3A3A31B
:103E3C00A3A32274F412179CE9FF7E008A088B0955
:103E4C0078081219F300040DF03F723E8E3EA33E2B
:103E5C00B83ECD3EE23EFE3E173F293F573F793FED
:103E6C00953FB13FCF3F74016F70128C828D83E010
:103E7C00C394035008E0900ADEF002400E7E180254
:103E8C00400E74026F70F68C828D8312474C900A30
:103E9C00DFE8F0A3E980E274016F70E18C828D831E
:103EAC00E0C3940250D7E090078180CD74016F700D
:103EBC00CC8C828D83E0C3940550C2E09007828045
:103ECC00B874016F70B78C828D83E0C3940250ADCF
:103EDC00E090078380A374106F70A27508108E0990
:103EEC0078081219AF7A847B07124B1012175B02F9
:103EFC00400E74016F70868C828D83E0C3940240F7
:103F0C0003023E89E0900794023E8574016F6003C2
:103F1C00023E898C828D83E0900AE2808D74046F5E
:103F2C006003023E8990929378081216158D838C4B
:103F3C008278081214374003023E898C828D8312DA
:103F4C00163390079612163F02400EEF6003023EA6
:103F5C0089120698E9700E1211C67950121370125C
:103F6C0011BA02400E9008297401023E8574016F4B
:103F7C006003023E898C828D83E0C394024003026D
:103F8C003E89E0900795023E8574016F6003023E06
:103F9C00898C828D83E0C3940A4003023E89E090B1
:103FAC000AE1023E8574016F6003023E898C828DAA
:103FBC0083E024F9C3940A4003023E89E0900AE3AB
:103FCC00023E8574016F6003023E89900828E0F878
:103FDC008C828D83E0900828F0E87026E0640170F4
:103FEC0021023F6BC3EA9426EB9400501374026FCA
:103FFC00700E8C828D83124746120536E9FE8002C4
:10400C000E0EEEF9024018740E12175B7F040218A4
:10401C006E74F012179C74CC1217458C0A8D0B74AD
:10402C0044121790E0FE7420121790AC82AD837589
:10403C00839275820074061216587420121790AC75
:10404C0082AD8312116CE9F508C3940A4003024156
:10405C008175F006E9A4F5097426121790AC82ADAF
:10406C00837A0E74202509124BC87009743212170A
:10407C0090E0FF80027F00900ADEE064027004741E
:10408C00018001E4F50D780D1219B3EEFDEFFCA9DA
:10409C0008AA0AAB0B1211F0740112175B7C147D89
:1040AC00007900740C121790AA82AB83121046741C
:1040BC000C121790AC82AD837A1074242509124B24
:1040CC00C870377C1079FF740C1217901248F57079
:1040DC0029741C121790AC82AD837A0474252509BF
:1040EC00F912136A740C121790AC82AD83EFA2E034
:1040FC00E433F9AA0AAB0B1205C085188285198323
:10410C00AC82AD837A0C74702508124BC87055853F
:10411C001882851983AA82AB8312119C750800E55D
:10412C000875F003A4F8A9F0851882851983E58237
:10413C0028F8E583124931124746EC4D601D888200
:10414C008983A3A3E0F50E750F00780E1219AFAAA0
:10415C000AAB0B12081E740212175B0508E508C3A4
:10416C00940440BBEFA2E1500C900780E0F9AA0A3E
:10417C00AB0B12082474046E702A900ADEE0640201
:10418C007022900794E060047A0180027A00900714
:10419C0081E06004780480027800E84AF9AA0AAB4E
:1041AC000B1206807900743412175B7F0802186EAC
:1041BC0074F012179CEAFEEBFF8C088D09750A0A45
:1041CC00E9600C14600914602E14607F02426212C4
:1041DC0011AEE9F50AC3940A507CE50845096076EE
:1041EC00750E06750F00780E1219AFEEFCEFFD126E
:1041FC004B0C12175B805F750B00750E06750F006C
:10420C00780E1219AFEEFCEFFDE50B75F00EA4F86D
:10421C00A9F074A228FA740739FB12104074021228
:10422C00175BE9601B850B0AE50AC3940A5027E566
:10423C000845096021AA08AB09A90A1211A8801621
:10424C00050BE50BC3940A500D80AF1211B4E9F5C0
:10425C000AC3940A40D9A90A0241B774F412179CF4
:10426C00890875091574FF6A700374FF6B70277EDB
:10427C0000AC087A027B00EEF912118AE960037532
:10428C0009000EEEC3940A40E8E50860497ADE7B2B
:10429C0011120A3A8040120A1C8A0A8B0BAE0AAF22
:1042AC000BEE4F602E7C007D00EE2405FAEF3400FF
:1042BC00FB8E828F8312435E500CAC087A027B001B
:1042CC0012118A750900E508600CEEFAEFFB121169
:1042DC00DE8003750914A90902401874F212179CA8
:1042EC00ECFEEDFF740E1217901247397508157419
:1042FC00FF6A700374FF6B7021750900AC0AAD0B7B
:10430C00EEFAEFFBA909121190E96003750800059C
:10431C0009E509C3940A503580E2120A1C8A828B83
:10432C0083E582458360237C007D00E5822405FAC9
:10433C00E5833400FB12435E5013AC0AAD0BEEFA6E
:10434C00EFFB1211907508008003750814A9080280
:10435C005137A3A3A3A3E0F912116CE9C3940A2269
:10436C00C082C08390079AEAF0A3EBF0900780E03C
:10437C00FC7D007A257B00120536900780E0F9124F
:10438C00079AD083D08202013574EA12179C74EC20
:10439C00121745EAFEEBFFEE240CF514EF3400F592
:1043AC0015EE240AF510EF3400F511EE2405F50E88
:1043BC00EF3400F50FEE2409F50AEF3400F50BEE9F
:1043CC002403F508EF3400F5098E828F83A3A3E054
:1043DC0024FA700302470224FD7003024631147064
:1043EC000302448014601024FD7003024602147012
:1043FC0003024666024720124765604AE0F583884F
:10440C008212474C880C890DE8450D603985148261
:10441C00851583E0F50E780E1219B3EE240BF58298
:10442C00EF3400F583E0F9850A82850B8312474649
:10443C000A0A0AAB09850C82850D8312179A74013E
:10444C0012175B024720850A82850B831219C690CE
:10445C0007961216331205D2740212175BE9700319
:10446C000247207901850A82850B83124F5C120565
:10447C00CC0247208E828F83A3858212858313E022
:10448C0060030245DB850E82850F83E0A2E04003CA
:10449C000245DB7C0E7D007900851882851983AA84
:1044AC0082AB83121046EE2408F50AEF3400F50BAC
:1044BC00850A82F5831247686019750C06750D0024
:1044CC00780C1219AF850A82850B83E02410FCA3AB
:1044DC00E0801A12472AEA4B7003024720750C063B
:1044EC00750D00780C1219AFEA2405FCEB3400FDB5
:1044FC007402121790AA82AB83124B1012175B85B1
:10450C000E82850F83E0A2E25004D2F08002C2F04A
:10451C00A2F0E433F8740C121790E048F085108286
:10452C008511831247686015851082851183E024FC
:10453C0010F8A3E03400F988828983800390929765
:10454C00780C121615851082851183124768600F3E
:10455C00851082851183E0F510A3E0F511800675B6
:10456C001000751100850A82850B83124768600B59
:10457C00850A82850B831247398006750A00750BF4
:10458C0000780C1219AB78101219AF780A1219AF07
:10459C008514828515831219C68E828F83A31247C8
:1045AC0041740A121790AA82AB831211A2740A12D8
:1045BC00175B85088285098312474C90082AE8F01E
:1045CC00A3E9F07A017B00900780E0F912108812C1
:1045DC00476570030247201247527003024720853B
:1045EC001282851383E0FC7901124F568E828F83E1
:1045FC0012179A0247201247657003024720E0F514
:10460C00838882A3A312474C890BE8450B700302E5
:10461C0047208E828F83A3E0FC7902124F5688824A
:10462C00850B8380CB7C007D00EE2404FAEF3400F4
:10463C00FB850882850983E0F912116CE9F8C394B3
:10464C000A4003024720AC10AD117A0475F006E85D
:10465C00A42425F9121364024720900795E0600EFC
:10466C00900AE1E0F9850882850983024477900A73
:10467C00DEE07004790580ED12472A8A0C8B0DA8B8
:10468C000CA90DE82404F50CE93400F50D8E828F8D
:10469C0083A3A3A3A3A3A3A3E0A2E05036E849609D
:1046AC0073850C82850D83E0FE6028850A82850B5C
:1046BC0083E05410701D740E121790AC82AD83E819
:1046CC002405FAE93400FBEEF912116CE970047957
:1046DC00038092AC0EAD0F850C82850D83E0F91230
:1046EC004F561211EA124765602A12475260257C18
:1046FC000079000245F5120698E97018900829E037
:10470C00640170081211C6900829E4F07950121354
:10471C00701211BA741412175B7F0E02186E850892
:10472C0082850983E0FAA3E0FB120A1C22E0F50A59
:10473C00A3E0F50B22A3A3A3A3A3E0FCA3E0FD221B
:10474C00E0F8A3E0F922E0F5838882A3A3E0F8A3C4
:10475C00E0F9E8FEE9FFEE4F2290079AE0F8A3E0BB
:10476C00F9E8492274F412179C74F2121745EAFE08
:10477C008C0B75F006E9A42420F5088518828519A0
:10478C0083AC82AD837A0E124BC8704A7C061248F9
:10479C00ED7043740C12179012474CE8F509E50BB9
:1047AC006005EE42098004EEF45209850982AA8262
:1047BC00E86A7001E9601B740C121790EAF0A3E42C
:1047CC00F0851882851983AC82AD837A0EA9081204
:1047DC00136479018002790002401374F212179C61
:1047EC0074E6121745890A8A088B09ECFEEDFF74F2
:1047FC000C121790124BBB60030248A17C0679FF88
:10480C00740C1217901248F560030248A1747025BD
:10481C000AF50B851882851983AC82AD837A0C124C
:10482C004BC860030248E6851882851983AA82ABBF
:10483C008312119CE508450970217C0C7900124803
:10484C00EF60030248E67C0C7D00790085188285B8
:10485C001983AA82AB831210468061851882851950
:10486C0083AC82AD83AA08AB091211968A0C8B0D0E
:10487C00A80CA90DE849702CEE4F6019851882859B
:10488C001983AC82AD837A007B00121196EAF8EBA7
:10489C00F9EA4B70047900804388828983E508F03B
:1048AC00A3E509F012496DFAEE6A7001EF602BEE88
:1048BC00F04F700888828983E4F0A3F08518828514
:1048CC001983AA82AB8312119C851882851983AC3B
:1048DC0082AD837A0CA90B1213647901741A0251FC
:1048EC003479FF851882851983AA82AB831210ACA8
:1048FC00E92274F712179C7F00EF75F003A4F8A956
:10490C00F0EC28F8ED124931E06A7003A3E06B700B
:10491C0006E8FAE9FB800B0FEFC3940440DB7A0046
:10492C007B00024C6639F9888289832274F712174E
:10493C009C7E00EE75F003A4F8A9F0EA28F8EB12BF
:10494C004931E0F4FCA3E0F4FD88828983ECF0A308
:10495C00EDF012496DF4F00EEEC3940440D5024C08
:10496C0066E82402F582E93400F583E02274EE1245
:10497C00179C74F4121745EAFEEBFF8C0A8D0B742E
:10498C001E121790E0F50CA3E0F50D742012179091
:10499C00E0F508A3E0F5097422121790E0F510A3D6
:1049AC00E0F511EE4F7005790A024A9E1211AEE93C
:1049BC00F50EC3940A4023750F007C0679FFE50FB2
:1049CC0075F00EA4FAABF0749C2AFA74073BFB1238
:1049DC0048F97003024AA8850F0EE50EC3940A40ED
:1049EC0003024A9C75F006E50EA4F50FEEFCEFFDF4
:1049FC007A0E7420124AB9E50A450B600BAC0AAD6D
:104A0C000B7A1B7421124AB9E50C450D600BAC0CEA
:104A1C00AD0D7A1B7422124AB9E5084509600BAC3E
:104A2C0008AD097A107423124AB9E5104511601BC0
:104A3C00AC10AD117A107424124AB9742412179068
:104A4C00AC82AD837A047425124AB97C0C7D007952
:104A5C00FF1251C57A0C7470250EF9121364750887
:104A6C000E75090078081219AFEEFCEFFDE50E7516
:104A7C00F00EA4F8A9F0749C28FA740739FB124BB9
:104A8C001012175B900828E060031211F61211E463
:104A9C00A90E740C12175B7F0A02186E050FE50F36
:104AAC00C3940A50030249C6750E0A80E3250FF918
:104ABC001213642274F412179C74F2121745EAFE56
:104ACC00EBFFE9C3940A5004EE4F70047902802D79
:104ADC00851882851983124BBBF508701E750A0662
:104AEC00750B00780A1219AF7402121790AC82ADD4
:104AFC0083EEFAEFFB124B1012175BA9080240135E
:104B0C00AA08AB0912102E74022274F412179CEA34
:104B1C00FEEBFF750800750A06750B00780A121972
:104B2C00AFEEFCEFFDE50875F00EA4F8A9F0749C4F
:104B3C0028FA740739FB121040740212175BE960F3
:104B4C0004A908800B0508E508C3940A40C8790A33
:104B5C0002401874F712179C74F0121745EAFEEB1A
:104B6C00FF750800851882851983AC82AD837A1095
:104B7C0075F006E508A42423124BC8701F7C101294
:104B8C0048ED7018EEFCEFFD851882851983AA821A
:104B9C00AB831205A2E97004A908800B0508E5088F
:104BAC00C3940A40BF790A741012175B024C66ACAE
:104BBC0082AD837A0E75F006E9A42420F912136AEB
:104BCC00E92274F712179C750800E50875F00EA41D
:104BDC00F8A9F0749C28FE740739FFEEFCEFFD7AFF
:104BEC000E75F006E508124BC5602C7C067D00792D
:104BFC00FFEEFAEFFB1210467C067D0079FFEE24E7
:104C0C0006FAEF3400FB121046EE240CF582EF345A
:104C1C0000F583E4F0A3F00508E508C3940A40AA64
:104C2C00900828E060031211F61211E4802C74F73E
:104C3C0012179C7E007F007C0679FFEF75F00EA4A6
:104C4C00FAABF0749C2AFA74073BFB1248F970011A
:104C5C000E0FEFC3940A40DFEEF97F0102186E7459
:104C6C00F712179C7E00EEF91211CC0EEEC3940ACB
:104C7C005003E960F180E374F312179C74CB1217A4
:104C8C0045E9FF75F006A4F50874202508FE742785
:104C9C00121790AC82AD837A0EEE124BC8600302F1
:104CAC004D857C0679FF74271217901248F5600326
:104CBC00024D857C0E7D0079FF7427121790AA8215
:104CCC00AB831210467C1B7D0079FF740C1217907D
:104CDC00AA82AB831210467C0C7D0079FF8518826A
:104CEC00851983AA82AB831210467427121790ACD5
:104CFC0082AD837A0EEEF9121364E9F509740C1285
:104D0C001790AC82AD837A1B7421124D94FE740CF7
:104D1C00121790AC82AD837A1B7422124D94F50A53
:104D2C00740C121790AC82AD837A107423124D94CC
:104D3C00F50B740C121790AC82AD837A107424129C
:104D4C004D94F50C740C121790AC82AD837A0474EC
:104D5C0025124D94F508851882851983AC82AD8394
:104D6C007A0C74702FF9121364E9F8EE450A450BAE
:104D7C00450C45084842098003750900A90974359A
:104D8C0012175B7F0502186E2508F9121364E922CD
:104D9C0074F712179CE9900780F01211BA024C6656
:104DAC0074F212179C74FB1217458A088B09EB548A
:104DBC00807003024E50900780E0F91210708A0A3E
:104DCC008B0BA80AA90BE8FEE9FFE849606CEE24FE
:104DDC0004F8EF3400F98E828F83E024506038148D
:104DEC00600624E1604A804B88828983E070448E9F
:104DFC00828F83A3A3A3A3A3A3A31219C68E828F0E
:104E0C00831247418E828F83A3A3124F5C121178B9
:104E1C00740212175B801C88828983E0641E7013F5
:104E2C0079008E828F83A3A3124F5C1211728003C0
:104E3C00121184EEFAEFFB12105EAA08E5096480E9
:104E4C00FB024F51EAA2E04003024F4D90082A1298
:104E5C004739740312179085820C85830D780C12D8
:104E6C0019AF750C02750D00780C1219AF750CD3B7
:104E7C00750D92780C1219AF7CFF7DFF7A017B00C7
:104E8C001206F2740612175B024F35E4F50CF50DA1
:104E9C00780C1219AF740412179085820C85830D4F
:104EAC00780C1219AF740412179085820C85830D3F
:104EBC00780C1219AF74091217901219C67902EEF8
:104ECC00FCEFFDAA0AAB0B120812740812175BE96F
:104EDC007035851882851983E0FA7401121790E0F9
:104EEC00F9EA2400F50CE439F50DEA450D60187863
:104EFC000C1219AF8E828F83124742AA0AAB0B1287
:104F0C001178740212175BE4F50CF50D780C12197C
:104F1C00AF74051217901219C67CFF7DFFEEFAEFE5
:104F2C00FB1206FE740412175B8A0C8B0DAE0CAFD1
:104F3C000DEE4F6003024E97E5086401FAAB098051
:104F4C00047A007B0074050251348508828509833C
:104F5C00E0FAA3E0FB22C082C083900780E0F98ACC
:104F6C00828B83A3124F5C12082402438EC082C032
:104F7C008374FF1217451211C0E9C394028518827D
:104F8C00851983400474028002740AF0AC82AD83EC
:104F9C007A0179051206B0740112175B02438E7404
:104FAC00F212179C74E8121745EAFEEBFF890A8C83
:104FBC00088D097C187D0079001251CDEEF0A3EF1D
:104FCC00F0900782E0C0E07402121790D0E0F090ED
:104FDC000783E0C0E07403121790D0E0F0900AE36E
:104FEC00E0C0E07417121790D0E0F074151217900F
:104FFC00E054FEF8A3E0F9900AE2E0A2E0E433FA10
:10500C00E84AF87415121790125143A2E15004D2D9
:10501C00F08002C2F0E854FDFAA2F0E43333F8EA6F
:10502C0048F87415121790125143A2E35004D2F0B1
:10503C008002C2F0E854F7FAA2F0E433F50C750DD7
:10504C00007403780C12173212513C121790125143
:10505C0043A2E45004D2F08002C2F0E854EFFAA26A
:10506C00F0E433F50C7404780C12173212513C1224
:10507C001790125143A2E55004D2F08002C2F0E81E
:10508C0054DFFAA2F0E433F50C7405780C121732E5
:10509C0012513C121790125143A2E25004D2F080EC
:1050AC0002C2F0E854FBFAA2F0E433F50C74027877
:1050BC000C12173212513C121790E8F0A3E9F09041
:1050CC000783E0601B750C10780C1219AF7C847D83
:1050DC00077406121790AA82AB83124B1012175B3F
:1050EC00900794E06011E50A60097415121790E0BE
:1050FC004402F07801800278007414121790E04892
:10510C00F0900781E0600478048002780074141237
:10511C001790E048F0AC08AD09851882851983AA70
:10512C0082AB831205C6741812175B7F0602186EC9
:10513C00EA450CF8741522E8F0A3E9F0900AE2E0D5
:10514C002274F312179C74E5121745EAFEEBFF8CE0
:10515C00098D0A7428121790E0F50C75F006E9A475
:10516C00F87408650A700474228002742128F50B07
:10517C007C1B7D0079001251C57A1BA90B124BC9FF
:10518C007032741A121790E024F9C3940A5025E572
:10519C000CF50B780B1219B37401121790AC82AD8D
:1051AC0083E509A2E0E433F9EEFAEFFB1205D874BB
:1051BC000112175B741B024D8C1251CDAC82AD8366
:1051CC0022851882851983AA82AB83121046851812
:1051DC00828519832274F712179C120896750800A1
:1051EC00E50875F00EA4F8A9F0749C28FE74073934
:1051FC00FF7C0679FFEEFAEFFB1248F97009EEFA24
:10520C00EFFB790012089C0508E508C3940A40D00E
:10521C00024C66C082C0839061907404F0A3744801
:10522C00F0A3E4F09061807440F09061BC7407F0DE
:10523C009061877469F09061B67416F07900120B66
:10524C00187902120B1E90245CE493F46006E4932C
:10525C00F9120AF47905120E12025661C082C0834B
:10526C00E9540FF9906185E0696012E5C6548044F9
:10527C0049F5C6E59E547F644970F8E9F053C68041
:10528C00E59E547F70FA02566174F712179CE5A8DC
:10529C00FE53A87E120B00C2BA539AFEC289759BAC
:1052AC0000C2C2120B0675A91175B905120B0CD2EE
:1052BC00BA439A0174805E42A8025BEEC082C0833E
:1052CC00906181E4F0A302565E75E900759100755A
:1052DC00BF00020135C082C083906181E4F0A374E9
:1052EC00C0F0A3E4025660C082C08374F812174564
:1052FC009003C4125AD0E84970030253AA9003C415
:10530C00E0544060237908851882851983AA82AB02
:10531C0083120C0E851882851983AA82AB8312081E
:10532C00BA9003C4E054BFF0E054806010790C7A5A
:10533C00807B05120C0E9003C4E0547FF0E0A2E0D9
:10534C00500879001253B254FEF0E0540260087910
:10535C00011253B254FDF0E054046008790012536A
:10536C00BD54FBF0E05408600879011253BD54F7AA
:10537C00F0E05410600879021253BD54EFF0E05481
:10538C0020600879031253BD54DFF0A3E054016090
:10539C000D120B2A1208CC9003C5E054FEF07408D1
:1053AC0012175B025661120B181208C09003C4E06E
:1053BC0022120B1E1208C69003C4E022C082C083C6
:1053CC00E9600514602A804F90619A7433F0A374DD
:1053DC0055F09061A0743AF090055CE0640170099E
:1053EC00C2919003C67467802D9003C674618026A9
:1053FC0090619A743FF0A3745AF09061A0747FF09E
:10540C0090055CE064017009D2919003C6747180C0
:10541C00059003C6746AF0025661C082C083E960CD
:10542C000B14600D14600F146011802090246080A8
:10543C00159024618010902462800B90055CE064D0
:10544C000160F3902463E493906186F002566174DA
:10545C00EE12179C74F4121745851882851983ACCB
:10546C0082AD837583927582B7740412165890249A
:10547C006093F460030255ED907808E0C3940250F9
:10548C00030255CD7404121790AC82AD83758391D1
:10549C007582D07408121658F97AFF7BFF7FFF7E55
:1054AC00008982858210801874086E700302558200
:1054BC0074096E7003025582740A6E700302558271
:1054CC00E510C333FCE433FD7404121790E5822C11
:1054DC00F582E5833DF583E0F50EA3E0F50F8E082C
:1054EC007509007402780812173274482508FC7488
:1054FC00783509FD8C828D8378081216157408781E
:10550C000812155685080C85090D8C828D83780838
:10551C0012161574187808121556E50C4508F5087E
:10552C00E50DF509C3E50E9508E50F95098C828DFF
:10553C008378081216158C828D83780812161574D0
:10554C001878084014121556E50C4508FCAD0DE50D
:10555C000EC39CFCE50F9D800F121556E50C4508FB
:10556C00C3950EFCE50D950FFDC3EC9AED9B500613
:10557C00ECFAEDFBEEFF0EEEC3941350030254B4A1
:10558C0074FF6A700374FF6B602D8F0874027808C7
:10559C00121732744812627C74783509F5837808D6
:1055AC00121615851882851983E5822510F582E57A
:1055BC0083126009E508F009E9C39404500302540E
:1055CC00A575080175090078081219AF7402121735
:1055DC0090AC82AD837A187B0912123874021217C0
:1055EC005B740C12175B7F0A02186EC082C083902A
:1055FC006186E0F8902463E493687009902462E477
:10560C0093906186F09061AE7468F0A3746AF09028
:10561C00624574FBF0A304F053F4FD43FE029005C5
:10562C005C7401F09061A0E0643A7004790080022F
:10563C007901120B18025661C082C08390050EE0EE
:10564C006401700A900513E06004790C8002790003
:10565C008003F0A3F0D083D082020135C082C083D6
:10566C0075E1F1900511E0604D146008146051145F
:10567C0060498051120B3C900507E0F97A087B05D4
:10568C00120D9490928F121633120DCA90924F12E3
:10569C001633120DA0900512E0F9120DAC7901121F
:1056AC000E06900505E024161257F67454F0A374F8
:1056BC000BF07900809F120B4280BC120B4880B714
:1056CC00120B4E80B2791280EB74F412179C75D9C0
:1056DC000D9004F6E0A2E0E4331313F8125762487D
:1056EC004401F5D978001257E040FB780088087423
:1056FC00F712627C74041257EA40F275E19590043B
:10570C00F6E0F97AF77B04120D9A900A1474CAF039
:10571C00A3740A12580512582512581C12595D12FE
:10572C00576C780812161590928B78081215A19068
:10573C00925778081215EF1257F078081216249029
:10574C000505E024141257F67413F09003C274028A
:10575C00F07F0402186E900507E0C4333354C02266
:10576C00900505E0F8A3E0F5838882A3A32274F6E4
:10577C0012179C12592E8AD978001257E040FB78E8
:10578C000080061258941259E0E8C39940F512595A
:10579C00201257E040FB78008008126278740512E2
:1057AC0059E0E8C39940F375E195900A1474D6F06A
:1057BC00A3740A12580512580F1216331257F0120E
:1057CC00163F900505E024141257F67412F090035E
:1057DC00C2025BCB880874082508F5827405125B3D
:1057EC003C940622900505E0240EF8A3E01257FD28
:1057FC00223400F9888289832212594674D0F0A38E
:10580C00740A2212582512581C1259619092972230
:10581C00F0A374E8F0A3740A221258292212582D0E
:10582C0022F0A3747AF0A3740C2274F612179C1253
:10583C0058891257624402F5D978001257E040FBA0
:10584C00780080061258941259E0E8C39940F57517
:10585C00E195900A1412589FF0A312589F125812F7
:10586C001216331257F012163F900505E02414124D
:10587C0057F67414F09003C27404025BCD900517B4
:10588C00E0F9740729F5D922880874182508F582DF
:10589C0074052274E21258AC1258ACF0A3740A22AC
:1058AC00F0A3740AF0A374E22274F612179C125936
:1058BC002E74064AF5D978001257E040FB78008028
:1058CC00061258941259E0E8C39940F51259201267
:1058DC0057E040FB7800800812627874051259E09A
:1058EC00E8C39940F375E195900A1474DCF0A37445
:1058FC000A12593C12580F1216331257F012163F57
:10590C00900505E024141257F67415F09003C27438
:10591C0003025BCD90053712588C74044AF5D97884
:10592C000022125889900507E0C4333354C0FA2280
:10593C00125946747AF0A3740C2212594A22125945
:10594C0057747AF0A3740C1259572212582DF0A3E5
:10595C002212596122F0900A22747AF0A3740C126C
:10596C00594A747AF0A3740C125829F022C082C0E0
:10597C008312576CA3A3A3A3E402565E74F7121709
:10598C009C1264BEF8740339F9E82405FAE9340072
:10599C00FB8A828B8312622D88828983A3A3A3A3A3
:1059AC00A3A3A3A3A3ECF0A3EDF088828983A3A304
:1059BC00A3A3A3A3A3E024FFF8A3E034FFF98A82F6
:1059CC008B83E8F0A3E9F0025BEE8808746025088D
:1059DC00F5827405126154F5D90822EAFEEBFF90AA
:1059EC0061D0E0F87480C398FAEE2483221259FF38
:1059FC00940422126017E0F5D90AEAC32274F61255
:105A0C00179CEAFEEBFF9061D0E0707575D90E75AE
:105A1C00D90375D9047A008A08EE250812658C24FE
:105A2C008C125AA240F17A008A08EE250812658C75
:105A3C0024841259F940F175E1957908EE248C1201
:105A4C005A9B2484125A927C008C82AA82C3E49AB8
:105A5C00F895E0F9EE28F8EF39F9E8248BF582E9AE
:105A6C00126150C0E0EE2A12658C24ABF582E9126B
:105A7C006009D0E0F00CECC3940840CD125B588068
:105A8C00027900025BCEFAEF3400FB120C022212F8
:105A9C005A927904EE221259FF940822C082C083D4
:105AAC0075D90275D90375D90575E195EA2470F598
:105ABC0082EB125ACDEA2472F582EB125B6A025623
:105ACC006112601A125AD422E0F8A3E0F92274F69B
:105ADC0012179CEAFEEBFF9005607406125B4612EF
:105AEC0019AF7C017903125E7212175B75D90675BA
:105AFC00D9037800125B2C40FB75E1959003C2E052
:105B0C0064087017EE2470F582EF125ACDEE2472F1
:105B1C00F582EF126009E8F0A3E9F07901025BCE9F
:105B2C00880874602508F5827405125B3C94052284
